:10000000FDC000001FC100001DC100001BC1000099
:1000100019C1000017C1000015C1000013C1000084
:1000200011C100000FC100000DC100000BC1000094
:1000300009C1000007C1000005C1000003C10000A4
:1000400001C10000FFC00000FDC00000FBC00000B7
:10005000F9C00000F7C00000F5C00000F3C00000C8
:10006000CAC10000EFC00000EDC00000EBC00000FE
:10007000E9C00000E7C00000E5C00000E3C00000E8
:10008000E1C00000DFC00000DDC00000DBC00000F8
:10009000D9C00000D7C00000D5C00000D3C0000008
:1000A000D1C00000CFC00000CDC00000CBC0000018
:1000B000C9C00000C7C00000C5C00000C3C0000028
:1000C000C1C00000BFC00000BDC00000BBC0000038
:1000D000B9C00000B7C00000B5C00000B3C0000048
:1000E000B1C00000AFC00000ADC00000ABC0000058
:1000F000A9C00000A7C00000A5C00000A3C0000068
:10010000A1C000009FC000009DC000009BC0000077
:1001100099C0000097C0000095C0000093C0000087
:1001200091C000008FC000008DC000008BC0000097
:1001300089C0000087C0000085C0000083C00000A7
:1001400081C000007FC000007DC000007BC00000B7
:1001500079C0000077C0000075C0000073C00000C7
:1001600071C000006FC000006DC000006BC00000D7
:1001700069C0000067C0000065C0000063C00000E7
:1001800061C000005FC000005DC000005BC00000F7
:1001900059C0000057C0000055C0000053C0000007
:1001A00051C000004FC000004DC000004BC0000017
:1001B00049C0000047C0000045C0000043C0000027
:1001C00041C000003FC000003DC000003BC0000037
:1001D00039C0000037C0000035C0000033C0000047
:1001E00031C000002FC000002DC000002BC0000057
:1001F00029C0000027C0000025C0000011241FBE38
:10020000CFEFCDBFDFE3DEBF00E00CBF18BE19BEED
:100210001ABE1BBE10E2A0E0B0E2E6E4F6E000E0A9
:100220000BBF02C007900D92A431B107D9F71BBED6
:1002300020E2A4E1B0E201C01D92A234B207E1F7CE
:10024000FBD0FFC1DDCE0F931F93E0EDF0E0908176
:100250009068908340911420509115206091162051
:10026000709117204483052F162F272F33270583DE
:100270008B01222733270683472F552766277727A9
:10028000478310921420109215201092162010927D
:100290001720813019F4808180628083E0EDF0E0E6
:1002A0008081807F80838081816080831F910F9116
:1002B0000895CF92DF92EF92FF92E1EDF0E080811E
:1002C00081608083808180FDFDCF8091D00085FF9B
:1002D0002EC04091D4009091D5008091D6002091FD
:1002E000D70050E060E070E0722B592B682B20E2C1
:1002F00080E090E0DC01880F991FAA1FBB1F6A01F4
:100300007B0131E0C322DD24EE24FF248C0D9D1DF2
:10031000AE1DBF1D7695679557954795215059F7A6
:10032000BC01CD01609570958095909508C0609155
:10033000D4008091D50070E0782B80E090E0E0ED73
:10034000F0E02081207F208320812083FF90EF90A8
:10035000DF90CF9008950F931F93CF93DF93EC011D
:100360008B01842F70DF0115110551F0BE01600F64
:10037000711FE3EDF0E089918083C617D707D9F7A5
:1003800098DFDF91CF911F910F910895CF93DF9365
:10039000FC01709620E030E0C62FD0E0DE01022E96
:1003A00002C0B595A7950A94E2F7A0FD50832F5F90
:1003B0003F4F31962830310589F740FF0AC041FF91
:1003C00003C0FC01658302C0FC016683FC016183FC
:1003D00002C0FC016283DF91CF91089543E050E0B9
:1003E00068E080EC97E0D2DF40E058E164E080EC28
:1003F00097E0CCCF08951F920F920FB60F92112461
:1004000008B60F9218BE8F938091C3088093262060
:1004100081E0809325208F910F9008BE0F900FBE32
:100420000F901F90189580E480934006E0ECF8E070
:10043000808383E081830895D1DFF5DF84E08093BA
:10044000A20078940F2EF5E06F2EF02DC7E2D0E2D7
:100450000F2EF4E17F2EF02D0F2EF6E15F2EF02D02
:10046000332433940F2EF5E0EF2EF12CF02D00EC19
:1004700018E022242A946894AA24A1F8B12C689444
:10048000442441F80F2EF6E18F2E912CF02D0F2EE3
:10049000F4E1CF2ED12CF02D809125208823E1F39B
:1004A000809126208A3A71F46092242010921D20B7
:1004B00010921C2010921B201092192010921A20CA
:1004C0001092182080912420882381F19091262079
:1004D000F701E81BF109E95DFF4D9083815080939E
:1004E0002420811157C08C8190E0982F88272B8180
:1004F000822B809322209093232040E063E070E0E1
:10050000CE0129DF609320207093212020912220AA
:10051000309123202617370731F48AEAF8018383C4
:1005200030921D2037C0F801238234C080911D20F5
:10053000882381F18A8181110EC0E0E0F0E2ACE213
:10054000B0E2872D01900D928A95E1F770921C2000
:1005500070921B201DC08150823028F430921C20E4
:1005600030921B2015C0E0E0F0E2ACE2B0E2872D53
:1005700001900D928A95E1F7ECE2F0E280911F2064
:10058000848B80911E20858B50921C2050921B20C2
:1005900010921D2080911C208823A9F19A8191112D
:1005A00009C0F601E81BF109E45DFF4D9081F801F7
:1005B000938316C0913029F490911F20F801938302
:1005C0000FC0923029F490911E20F801938308C047
:1005D000F401E81BF109E45DFF4D9081F80193837C
:1005E000815080931C20811129C060911B2070E0F4
:1005F00040E08CE290E2AFDE6093192070931A2005
:10060000409218201BC0409118204423B9F0950156
:10061000241B3109220F331F220F331F220F331FD8
:100620008091192090911A2002C0969587952A955D
:10063000E2F7F8018383415040931820109225205F
:060640002BCFF894FFCF60
:100646000102030405060708090A0B0C0D0E0F101C
:040656001112131456
:00000001FF
