:10000000FDC000001FC100001DC100001BC1000099
:1000100019C1000017C1000015C1000013C1000084
:1000200011C100000FC100000DC100000BC1000094
:1000300009C100008DC2000005C1000003C100001D
:1000400001C10000FFC00000FDC00000FBC00000B7
:10005000F9C00000F7C00000F5C00000F3C00000C8
:1000600015C50000EFC00000EDC00000EBC00000AF
:10007000E9C00000E7C00000E5C00000E3C00000E8
:10008000E1C00000DFC00000DDC00000DBC00000F8
:10009000D9C00000D7C00000D5C00000D3C0000008
:1000A000D1C00000CFC00000CDC00000CBC0000018
:1000B000C9C00000C7C00000AFC20000C3C000003C
:1000C000C1C00000BFC00000BDC00000BBC0000038
:1000D000B9C00000B7C00000B5C00000B3C0000048
:1000E000B1C00000AFC00000ADC00000ABC0000058
:1000F000A9C00000A7C00000A5C00000A3C0000068
:10010000A1C000009FC000009DC000009BC0000077
:1001100099C0000097C0000095C0000093C0000087
:1001200091C000008FC000008DC000008BC0000097
:1001300041C2000087C0000085C0000083C00000ED
:1001400081C000007FC000007DC000007BC00000B7
:1001500079C0000077C0000075C0000073C00000C7
:1001600071C000006FC000006DC000006BC00000D7
:1001700069C0000067C0000065C0000063C00000E7
:1001800061C000005FC000005DC000005BC00000F7
:1001900059C0000057C0000055C0000053C0000007
:1001A00051C000004FC000004DC0000067C20000F9
:1001B00049C0000047C0000045C0000043C0000027
:1001C00041C000003FC000003DC000003BC0000037
:1001D00039C0000037C0000035C0000033C0000047
:1001E00031C000002FC000002DC000002BC0000057
:1001F00029C0000027C0000025C0000011241FBE38
:10020000CFEFCDBFDFE3DEBF00E00CBF18BE19BEED
:100210001ABE1BBE10E2A0E0B0E2E6E2FFE000E0A2
:100220000BBF02C007900D92A630B107D9F71BBED5
:1002300020E2A6E0B0E201C01D92A233B207E1F7CE
:1002400046D46FC6DDCECF93DF931F92CDB7DEB716
:100250009FB79983F8949981E82FF0E0E059FF4F18
:1002600060958081682360839FBF0F90DF91CF915D
:1002700008950F931F93E0EDF0E0908190689083D4
:10028000409106205091072060910820709109202C
:100290004483052F162F272F332705838B01222711
:1002A00033270683472F55276627772747831092E2
:1002B0000620109207201092082010920920813009
:1002C00019F4808180628083E0EDF0E08081807F9E
:1002D00080838081816080831F910F910895CF92E8
:1002E000DF92EF92FF92E1EDF0E080818160808308
:1002F000808180FDFDCF8091D00085FF2EC0409190
:10030000D4009091D5008091D6002091D70050E084
:1003100060E070E0722B592B682B20E280E090E0C7
:10032000DC01880F991FAA1FBB1F6A017B0131E006
:10033000C322DD24EE24FF248C0D9D1DAE1DBF1DA8
:100340007695679557954795215059F7BC01CD0192
:10035000609570958095909508C06091D4008091CB
:10036000D50070E0782B80E090E0E0EDF0E02081B7
:10037000207F208320812083FF90EF90DF90CF901B
:1003800008950F931F93CF93DF93EC018B01842F7C
:1003900070DF0115110551F0BE01600F711FE3ED13
:1003A000F0E089918083C617D707D9F798DFDF91EE
:1003B000CF911F910F910895CF93DF93FC01709619
:1003C00020E030E0C62FD0E0DE01022E02C0B5955D
:1003D000A7950A94E2F7A0FD50832F5F3F4F319617
:1003E0002830310589F740FF0AC041FF03C0FC01F6
:1003F000658302C0FC016683FC01618302C0FC01CD
:100400006283DF91CF91089543E050E068E080EC93
:1004100097E0D2DF40E058E164E080EC97E0CCCF99
:100420000895CF93DF93E0910A20F0910B2084810F
:1004300083FF08C08860848383E0838386EF809392
:10044000142083C0982F947131F083E083838FEF61
:10045000809314207AC086FF43C0CAE0D0E2AA810C
:10046000BB818C819D8114962D913C9115978217AB
:1004700093076CF49C012F5F3F4F20930E20309325
:100480000F20A80FB91F11968C9187835EC08091B1
:1004900010209091112018962D913C911997821758
:1004A0009307C8F420911220222321F086818160D5
:1004B00086834BC016962D913C911797AC014F5FE8
:1004C0005F4F4093102050931120D901A80FB91FFE
:1004D0008C9187833AC083E083831092142035C0C7
:1004E000882384F5AAE0B0E21296CD91DC911397AF
:1004F00016968D919C9117972885398582179307B9
:10050000D8F46E817F819C012F5F3F4F2093102094
:10051000309311204781DB01A80FB91F4C938885C8
:1005200099852817390718F482E083830EC087E085
:1005300083831092142009C083E0838389EF809322
:10054000142003C08BEF80931420DF91CF91089586
:100550001F920F920FB60F92112408B60F9218BE79
:1005600009B60F9219BE0BB60F921BBE2F933F9385
:100570004F935F936F937F938F939F93AF93BF93AB
:10058000EF93FF934EDFFF91EF91BF91AF919F915A
:100590008F917F916F915F914F913F912F910F902C
:1005A0000BBE0F9009BE0F9008BE0F900FBE0F90AC
:1005B0001F9018951F920F920FB60F92112408B634
:1005C0000F9218BE09B60F9219BE0BB60F921BBE42
:1005D0002F933F934F935F936F937F938F939F934B
:1005E000AF93BF93EF93FF931CDFFF91EF91BF9108
:1005F000AF919F918F917F916F915F914F913F91BB
:100600002F910F900BBE0F9009BE0F9008BE0F9058
:100610000FBE0F901F9018951F920F920FB60F925A
:10062000112408B60F9218BE09B60F9219BE0BB668
:100630000F921BBE2F933F934F935F936F937F93C4
:100640008F939F93AF93BF93EF93FF93EADEFF9156
:10065000EF91BF91AF919F918F917F916F915F913A
:100660004F913F912F910F900BBE0F9009BE0F90AD
:1006700008BE0F900FBE0F901F9018951F920F92FB
:100680000FB60F92112408B60F9218BE09B60F923A
:1006900019BE0BB60F921BBE2F933F934F935F93E0
:1006A0006F937F938F939F93AF93BF93EF93FF933A
:1006B000B8DEFF91EF91BF91AF919F918F917F91A4
:1006C0006F915F914F913F912F910F900BBE0F90C3
:1006D00009BE0F9008BE0F900FBE0F901F90189587
:1006E000FC01DB0114968C91858388EB818381E08A
:1006F0008483EAE0F0E211861286E0EAF0E082818B
:1007000082608283789480E00895CF93DF931F9274
:10071000CDB7DEB7DC01892B09F44BC0611571053B
:1007200009F449C0FB01928580911320882319F0B8
:100730009923F1F342C08FB78983F8948981EAE065
:10074000F0E291E0918790E892878FBFA083B18318
:100750006283738314821582168217824087FB019D
:100760008081880F24813581232B11F4411103C02E
:1007700016968C9303C0816016968C93EAE0F0E2A3
:1007800082858038E9F3E0910A20F0910B20848182
:100790008370813049F0AAE0B0E2ED91FC911197AD
:1007A000848183708130C9F7EAE0F0E282851186A6
:1007B00005C088EF03C088EF01C086EF0F90DF917E
:1007C000CF9108950F931F93CF93DF93EC018B018B
:1007D000FB0180819181A281B3819C01AD01220F37
:1007E000331F441F551F60E874E88EE190E077D313
:1007F000DA01C9010597A109B109F801848395833C
:10080000A683B783209709F436C1C03CD10521F4F3
:1008100060E180E018DD2FC1C034F4E0DF0721F48F
:1008200068E080E010DD27C1C11584E0D80721F41D
:1008300064E080E008DD1FC1C038E1E0DE0721F49C
:1008400062E080E000DD17C1C115F1E0DF0721F4AF
:1008500061E080E0F8DC0FC1C03883E0D80721F404
:1008600061E081E0F0DC07C1C039E3E0DE0721F49C
:1008700061E082E0E8DCFFC0C115F2E0DF0721F4AF
:1008800062E081E0E0DCF7C0C03482E0D80721F408
:1008900062E082E0D8DCEFC0C115E3E0DE0721F4BE
:1008A00064E081E0D0DCE7C0C032F3E0DF0721F490
:1008B00064E082E0C8DCDFC0C11588E0D80721F41D
:1008C00061E083E0C0DCD7C0C115E9E0DE0721F4B8
:1008D00061E084E0B8DCCFC0C115FAE0DF0721F4A5
:1008E00061E085E0B0DCC7C0C1158BE0D80721F41A
:1008F00061E086E0A8DCBFC0C034E8E0DE0721F498
:1009000062E083E0A0DCB7C0C034F9E0DF0721F487
:1009100062E084E098DCAFC0C0348AE0D80721F4FC
:1009200062E085E090DCA7C0C034EBE0DE0721F494
:1009300062E086E088DC9FC0C039F8E0DF0721F480
:1009400064E083E080DC97C0C03989E0D80721F4F7
:1009500064E084E078DC8FC0C039EAE0DE0721F48F
:1009600064E085E070DC87C0C039FBE0DF0721F47C
:1009700064E086E068DC7FC0C03C88E0D80721F4F2
:1009800068E083E060DC77C0C03CE9E0DE0721F48A
:1009900068E084E058DC6FC0C03CFAE0DF0721F477
:1009A00068E085E050DC67C0C03C8BE0D80721F4EC
:1009B00068E086E048DC5FC0C03AE8E0DE0721F48A
:1009C00060E183E040DC57C0C03AF9E0DF0721F482
:1009D00060E184E038DC4FC0C03A8AE0D80721F4F7
:1009E00060E185E030DC47C0C03AEBE0DE0721F48F
:1009F00060E186E028DC3FC0C03BF8E0DF0721F47F
:100A000060E283E020DC37C0C03B89E0D80721F4F6
:100A100060E284E018DC2FC0C03BEAE0DE0721F48E
:100A200060E285E010DC27C0C03BFBE0DF0721F47B
:100A300060E286E008DC1FC0C03884E0D80721F4FB
:100A400060E483E000DC17C0C039E4E0DE0721F495
:100A500060E484E0F8DB0FC0C03AF4E0DF0721F483
:100A600060E485E0F0DB07C0C03B84E0D80719F400
:100A700060E486E0E8DBB801CE0132DE082E000C2F
:100A8000990BDF91CF911F910F9108951F920F92B3
:100A90000FB60F92112408B60F9218BE8F93809153
:100AA000C3088093242081E0809323208F910F90AE
:100AB00008BE0F900FBE0F901F90189580E4809392
:100AC0004006E0ECF8E0808383E081830895CF93D3
:100AD000DF93CDB7DEB7CB54D109CDBFDEBF94DCF9
:100AE000EDDF84E08093A200789419E0BE016F5F8F
:100AF0007F4FDB01E12F1D92EA95E9F70F2EF0EA17
:100B0000CF2EF6E8DF2EEE24E394F12CF02DC982EF
:100B1000DA82EB82FC820F2EF8E4BF2EF02DB9862C
:100B200080EB94E04FDEBE01665F7F4FDB01E12F7B
:100B30001D92EA95E9F7CA86DB86EC86FD8609E414
:100B40000A8B80EB94E03EDEBE016D5E7F4FDB01E1
:100B50001D921A95E9F7CB8ADC8AED8AFE8A1AE49F
:100B60001B8F80EB94E02EDE82E48C8F83E88D8FE8
:100B70007BE0FE017E96DF01F72E1D92FA94E9F7E5
:100B8000BE8E61E06F8F41E050E04AA35BA39E01FF
:100B9000245E3F4F2CA33DA382E090E08EA39FA351
:100BA0003B96DF01F72E1D92FA94E9F709A76AA791
:100BB0004DA75EA72FA738AB89AB9AAB3B96DF0159
:100BC0001D927A95E9F71CAB6DAB48AF59AF2AAFD0
:100BD0003BAF8CAF9DAF40E0BE01625E7F4F80EBCC
:100BE00094E093DD8111F7CF40E0BE01675D7F4F58
:100BF00080EB94E08ADD8111F7CF40E0BE016C5CB0
:100C00007F4F80EB94E081DD8111F7CF88E0809306
:100C1000C6071E01BFE32B0E311C7E01EAE4EE0E77
:100C2000F11C6894AA24A1F8B12C0F2EF0E0CF2E6D
:100C3000F0E2DF2EF02D0F2EF0EC6F2EF8E07F2E7D
:100C4000F02D05E210E20F2EF6E04F2E512CF02D84
:100C50000F2EF5E08F2E912CF02D809123208823EC
:100C600009F4EFC0809124208A3A91F485E08093C2
:100C7000222010921B2010921A20109219201092FC
:100C80001720109218201092162081E080931520D2
:100C900080912220882309F43DC090912420F40102
:100CA000E81BF109EB5DFF4D90838150809322207A
:100CB000811166C088E08093C607D80114968C9194
:100CC000149790E0982F882713962C91822B80936D
:100CD00020209093212040E063E070E0C80151DBC8
:100CE00060931E2070931F2020912020309121209E
:100CF0002617370739F48AEAF301838381E080936A
:100D00001B203EC088E08093C6078FEFD301139667
:100D10008C9336C080911B20882391F1F801828149
:100D200081110EC086E0F601AAE2B0E201900D92B8
:100D30008A95E1F786E080931A20809319201EC0DF
:100D40008150823030F481E080931A208093192002
:100D500015C086E0F601AAE2B0E201900D928A95F4
:100D6000E1F7EAE2F0E280911D20868380911C2069
:100D7000878388E080931A208093192010921B208B
:100D800080911A208823D9F1D80112969C91911153
:100D900009C0F201E81BF109E65DFF4D9081F30106
:100DA000938319C0913031F490911D20D301139693
:100DB0009C9311C0923029F490911C20F3019383ED
:100DC0000AC0E8E0F0E0E81BF109E65DFF4D908124
:100DD000D30113969C93815080931A2081112EC0C9
:100DE0006091192070E040E08AE290E2CADA6093F4
:100DF00017207093182082E0809316201FC08091E6
:100E000016208823D9F0A501481B5109440F551F0E
:100E1000440F551F440F551F209117203091182063
:100E200002C0369527954A95E2F7F3012383815056
:100E300080931620811102C0109215201092232059
:100E40000CCF80911520811108CF8BE0D1011D922C
:100E50008A95E9F788E48FAFE1E0F0E02596EEAF00
:100E6000FFAF25972796EEAEFFAE27972996AEAE39
:100E7000BFAE299741E0B10180EB94E046DC8111DF
:100E800008C0D70111968C911197F60180838C913F
:100E9000818389E48FAF41E0B10180EB94E035DCE0
:100EA000811108C0D70111968C911197F6018283A8
:100EB0008C9183838AE48FAF41E0B10180EB94E0B1
:100EC00024DC811108C0D70111968C911197F6018D
:100ED00084838C91858381E080931520BECEA1E22E
:100EE0001A2EAA1BBB1BFD010DC0AA1FBB1FEE1FA4
:100EF000FF1FA217B307E407F50720F0A21BB30BEF
:100F0000E40BF50B661F771F881F991F1A9469F76A
:100F100060957095809590959B01AC01BD01CF01C6
:060F20000895F894FFCFD4
:060F2600010203040506B0
:00000001FF
