S01D00005350495F436F6D6D756E69636174696F6E5F4465762E73726563E8
S1130000FDC000001FC100001DC100001BC1000095
S113001019C1000017C1000015C1000013C1000080
S113002011C100000FC1000036C1000057C100001B
S113003009C1000043C5000005C1000003C1000060
S113004001C10000FFC00000FDC00000FBC00000B3
S1130050F9C00000F7C00000F5C00000F3C00000C4
S1130060FAC10000EFC00000EDC00000EBC00000CA
S1130070E9C00000E7C00000E5C00000E3C00000E4
S1130080E1C00000DFC00000DDC00000DBC00000F4
S1130090D9C00000D7C00000D5C00000D3C0000004
S11300A0D1C00000CFC00000CDC00000CBC0000014
S11300B0C9C00000C7C0000065C50000C3C000007F
S11300C0C1C00000BFC00000BDC00000BBC0000034
S11300D0B9C00000B7C00000B5C00000B3C0000044
S11300E0B1C00000AFC00000ADC00000ABC0000054
S11300F0A9C00000A7C00000A5C00000A3C0000064
S1130100A1C000009FC000009DC000009BC0000073
S113011099C0000097C0000095C0000093C0000083
S113012091C000008FC000008DC000008BC0000093
S1130130F7C4000087C0000085C0000083C0000031
S113014081C000007FC000007DC000007BC00000B3
S113015079C0000077C0000075C0000073C00000C3
S113016071C000006FC000006DC000006BC00000D3
S113017069C0000067C0000065C0000063C00000E3
S113018061C000005FC000005DC000005BC00000F3
S113019059C0000057C0000055C0000053C0000003
S11301A051C000004FC000004DC000001DC500003C
S11301B049C0000047C0000045C0000043C0000023
S11301C041C000003FC000003DC000003BC0000033
S11301D039C0000037C0000035C0000033C0000043
S11301E031C000002FC000002DC000002BC0000053
S11301F029C0000027C0000025C0000011241FBE34
S1130200CFEFCDBFDFE3DEBF00E00CBF18BE19BEE9
S11302101ABE1BBE10E2A0E0B0E2ECE7FCE000E096
S11302200BBF02C007900D92AC30B107D9F71BBECB
S113023020E2ACE0B0E201C01D92A73BB207E1F7B7
S113024005D51AC5DDCECF93DF931F92CDB7DEB7A8
S113025064E080E0A8D2E0E0F4E08FEF9FEF8287D3
S113026093871086118680912E208F3F09F4FFCF4B
S11302708FB78983F8949981EBE2F0E283818F5FF1
S113028083839FBFE0E0F4E081E0828380830F906A
S1130290DF91CF9108951F920F920FB60F92112400
S11302A008B60F9218BE0BB60F921BBE8F939F9386
S11302B0EF93FF93E1E3F0E28081918101968083E3
S11302C09183FF91EF919F918F910F900BBE0F90AF
S11302D008BE0F900FBE0F901F9018951F920F929B
S11302E00FB60F92112408B60F9218BE09B60F92DA
S11302F019BE0BB60F921BBECF92DF92EF92FF9204
S11303000F931F932F933F934F935F936F937F9319
S11303108F939F93AF93BF93EF93FF93E1E3F0E247
S1130320808191812281338182179307F0F121E04A
S113033020930204E0913720F09138203097A9F1FE
S11303406091080470910904A0E0B0E0DC019927F1
S11303508827AB0160E070E08C019D01042B152B14
S1130360262B372BC901B801A1E3B0E212960D91F7
S11303701C91139720E030E0980111270027149670
S1130380CD90DC901597E12CF12C0C291D292E29F8
S11303903F29061717072807390730F0C901B801A4
S11303A06F5F7F4F8F4F9F4F1995FF91EF91BF91D3
S11303B0AF919F918F917F916F915F914F913F91F9
S11303C02F911F910F91FF90EF90DF90CF900F909E
S11303D00BBE0F9009BE0F9008BE0F900FBE0F907A
S11303E01F901895FC0192A9DF01A90FB11D6C9310
S11303F09F5F29E2929F212D11242695269526950B
S113040082E3289F9019112492AB0895FC0193A9CB
S1130410DF01A90FB11D8C919F5F29E2929F212DCD
S1130420112426952695269532E3239F90191124AD
S113043093AB0895FC0192A983A9981B892F99E293
S1130440899F912D112496959695969522E3929FD6
S11304508019112408951F920F920FB60F92112440
S113046008B60F9218BE09B60F9219BE0BB60F92BA
S11304701BBE2F933F934F935F936F937F938F9301
S11304809F93AF93BF93EF93FF936091C30889E366
S113049090E2A8DF84E790E2CDDF882329F084E7A7
S11304A090E2B4DF8093C308809117208F5F80931C
S11304B01720FF91EF91BF91AF919F918F917F9101
S11304C06F915F914F913F912F910F900BBE0F90C1
S11304D009BE0F9008BE0F900FBE0F901F90189585
S11304E068E083E060D180E480934006E0ECF8E0CB
S11304F0808383E0818384E08093A20085E3E9E341
S1130500F0E2DF01982F1D929A95E9F7E4E7F0E213
S1130510DF011D928A95E9F708956F927F928F9279
S11305209F92AF92BF92CF92DF92EF92FF920F937E
S11305301F93CF93DF9389E390E27CDF8093732052
S11305400F2EF5E08F2EF02D992493940F2EFCE0BE
S11305507F2EF02D0F2EFEE0AF2EF02D00EC17E0D5
S11305606894BB24B3F8C5E0D0E00F2EFEE6EF2E6E
S1130570F0E2FF2EF02D6894CC24C1F8D12C6894BD
S1130580662461F8B7C089E390E240DF80931820C5
S1130590809118208A3A81F48092162010921120BA
S11305A01092102010920F2010920D2010920E2005
S11305B010920C2090922820909116209923B1F14A
S11305C0F801B68280911820FE01E91BF109E25975
S11305D0FF4D8083915090931620911142C0F701F2
S11305E0848190E0982F88272381822B8093142084
S11305F09093152040E063E070E0C70172D16093EE
S11306001220709313202091142030911520261766
S1130610370739F46AEA84E790E2E4DE9092112025
S113062020C060EF84E790E2DDDE1BC080911120E2
S11306308823B9F0E0E0F0E2A9EAB0E2872D019066
S11306400D928A95E1F7E9EAF0E280912920848706
S113065080912A208587A0921020A0920F201092CA
S1130660112080911020882301F1E0910F20F0E007
S1130670E81BF109E755FF4D608184E790E2B2DEA3
S113068080911020815080931020811131C060919D
S11306900F2070E040E089EA90E223D160930D20BE
S11306A070930E2060920C2023C080910C2088232C
S11306B0F9F09601281B3109C901880F991F880F89
S11306C0991F880F991F60910D2070910E2002C010
S11306D0769567958A95E2F784E790E283DE8091C8
S11306E00C20815080930C20811102C0109228208C
S11306F01092172089E390E29DDE811144CFDF91AF
S1130700CF911F910F91FF90EF90DF90CF90BF900A
S1130710AF909F908F907F906F900895CF93DF93C9
S113072000D0CDB7DEB78FEF809370008093710057
S1130730809372008093730080937400809375009B
S1130740809376008FB78A83F8949A81E0E5F0E08D
S11307508081826080839FBF818181FFFDCF61E0C2
S113076080E490E0D9D08FB78B83F8949B81E0E547
S1130770F0E080818E7F80839FBF82E082838FB789
S11307808983F89499818081886080839FBF818167
S113079083FFFDCF8BE0809343002396CDBFDEBF64
S11307A0DF91CF910895CF93DF931F92CDB7DEB73A
S11307B09FB79983F8949981E82FF0E0E059FF4FAF
S11307C060958081682360839FBF0F90DF91CF91F4
S11307D008950F931F93E0EDF0E09081906890836B
S11307E04091192050911A2060911B2070911C2077
S11307F04483052F162F272F332705838B012227A8
S113080033270683472F5527662777274783109278
S1130810192010921A2010921B2010921C20813053
S113082019F4808180628083E0EDF0E08081807F34
S113083080838081816080831F910F910895CF927E
S1130840DF92EF92FF92E1EDF0E08081816080839E
S1130850808180FDFDCF8091D00085FF2EC0409126
S1130860D4009091D5008091D6002091D70050E01B
S113087060E070E0722B592B682B20E280E090E05E
S1130880DC01880F991FAA1FBB1F6A017B0131E09D
S1130890C322DD24EE24FF248C0D9D1DAE1DBF1D3F
S11308A07695679557954795215059F7BC01CD0129
S11308B0609570958095909508C06091D400809162
S11308C0D50070E0782B80E090E0E0EDF0E020814E
S11308D0207F208320812083FF90EF90DF90CF90B2
S11308E008950F931F93CF93DF93EC018B01842F13
S11308F070DF0115110551F0BE01600F711FE3EDAA
S1130900F0E089918083C617D707D9F798DFDF9184
S1130910CF911F910F9108951BBEFC0128ED24BFB8
S113092060830895CF93DF93FC01709620E030E05C
S1130930C62FD0E0DE01022E02C0B595A7950A9419
S1130940E2F7A0FD50832F5F3F4F319628303105E9
S113095089F740FF0AC041FF03C0FC01658302C060
S1130960FC016683FC01618302C0FC016283DF91A8
S1130970CF91089543E050E068E080EC97E0D2DF47
S113098040E058E164E080EC97E0CCCF0895CF9349
S1130990DF93E0911D20F0911E20848183FF08C025
S11309A08860848383E0838386EF8093272083C0D9
S11309B0982F947131F083E083838FEF8093272005
S11309C07AC086FF43C0CDE1D0E2AA81BB818C818D
S11309D09D8114962D913C911597821793076CF481
S11309E09C012F5F3F4F2093212030932220A80F9A
S11309F0B91F11968C9187835EC0809123209091BA
S1130A00242018962D913C91199782179307C8F4C6
S1130A1020912520222321F08681816086834BC08A
S1130A2016962D913C911797AC014F5F5F4F409301
S1130A30232050932420D901A80FB91F8C918783B8
S1130A403AC083E083831092272035C0882384F53D
S1130A50ADE1B0E21296CD91DC91139716968D918B
S1130A609C9117972885398582179307D8F46E814E
S1130A707F819C012F5F3F4F2093232030932420BC
S1130A804781DB01A80FB91F4C93888599852817E6
S1130A90390718F482E083830EC087E083831092C1
S1130AA0272009C083E0838389EF8093272003C034
S1130AB08BEF80932720DF91CF9108951F920F929F
S1130AC00FB60F92112408B60F9218BE09B60F92F2
S1130AD019BE0BB60F921BBE2F933F934F935F9398
S1130AE06F937F938F939F93AF93BF93EF93FF93F2
S1130AF04EDFFF91EF91BF91AF919F918F917F91C5
S1130B006F915F914F913F912F910F900BBE0F907A
S1130B1009BE0F9008BE0F900FBE0F901F9018953E
S1130B201F920F920FB60F92112408B60F9218BE9F
S1130B3009B60F9219BE0BB60F921BBE2F933F93AB
S1130B404F935F936F937F938F939F93AF93BF93D1
S1130B50EF93FF931CDFFF91EF91BF91AF919F91B2
S1130B608F917F916F915F914F913F912F910F9052
S1130B700BBE0F9009BE0F9008BE0F900FBE0F90D2
S1130B801F9018951F920F920FB60F92112408B65A
S1130B900F9218BE09B60F9219BE0BB60F921BBE68
S1130BA02F933F934F935F936F937F938F939F9371
S1130BB0AF93BF93EF93FF93EADEFF91EF91BF9161
S1130BC0AF919F918F917F916F915F914F913F91E1
S1130BD02F910F900BBE0F9009BE0F9008BE0F907F
S1130BE00FBE0F901F9018951F920F920FB60F9281
S1130BF0112408B60F9218BE09B60F9219BE0BB68F
S1130C000F921BBE2F933F934F935F936F937F93EA
S1130C108F939F93AF93BF93EF93FF93B8DEFF91AE
S1130C20EF91BF91AF919F918F917F916F915F9160
S1130C304F913F912F910F900BBE0F9009BE0F90D3
S1130C4008BE0F900FBE0F901F90189593DE66DDBF
S1130C50FADA46DC789481E080932A2084E3809356
S1130C6029202FEF87E893E1215080409040E1F75D
S10F0C7000C0000052DCF5CFF894FFCF68
S10F0C7C01020304050600000000000053
S9030000FC
