:10000000FDC000001FC100001DC100001BC1000099
:1000100019C1000017C1000015C1000013C1000084
:1000200011C100000FC100000DC100000BC1000094
:1000300009C100008DC2000005C1000003C100001D
:1000400001C10000FFC00000FDC00000FBC00000B7
:10005000F9C00000F7C00000F5C00000F3C00000C8
:10006000B1C30000EFC00000EDC00000EBC0000015
:10007000E9C00000E7C00000E5C00000E3C00000E8
:10008000E1C00000DFC00000DDC00000DBC00000F8
:10009000D9C00000D7C00000D5C00000D3C0000008
:1000A000D1C00000CFC00000CDC00000CBC0000018
:1000B000C9C00000C7C00000AFC20000C3C000003C
:1000C000C1C00000BFC00000BDC00000BBC0000038
:1000D000B9C00000B7C00000B5C00000B3C0000048
:1000E000B1C00000AFC00000ADC00000ABC0000058
:1000F000A9C00000A7C00000A5C00000A3C0000068
:10010000A1C000009FC000009DC000009BC0000077
:1001100099C0000097C0000095C0000093C0000087
:1001200091C000008FC000008DC000008BC0000097
:1001300041C2000087C0000085C0000083C00000ED
:1001400081C000007FC000007DC000007BC00000B7
:1001500079C0000077C0000075C0000073C00000C7
:1001600071C000006FC000006DC000006BC00000D7
:1001700069C0000067C0000065C0000063C00000E7
:1001800061C000005FC000005DC000005BC00000F7
:1001900059C0000057C0000055C0000053C0000007
:1001A00051C000004FC000004DC0000067C20000F9
:1001B00049C0000047C0000045C0000043C0000027
:1001C00041C000003FC000003DC000003BC0000037
:1001D00039C0000037C0000035C0000033C0000047
:1001E00031C000002FC000002DC000002BC0000057
:1001F00029C0000027C0000025C0000011241FBE38
:10020000CFEFCDBFDFE3DEBF00E00CBF18BE19BEED
:100210001ABE1BBE10E2A0E0B0E2EEE5FCE000E09A
:100220000BBF02C007900D92A630B107D9F71BBED5
:1002300020E2A6E0B0E201C01D92A233B207E1F7CE
:10024000C3D30BC5DDCECF93DF931F92CDB7DEB7FF
:100250009FB79983F8949981E82FF0E0E059FF4F18
:1002600060958081682360839FBF0F90DF91CF915D
:1002700008950F931F93E0EDF0E0908190689083D4
:10028000409106205091072060910820709109202C
:100290004483052F162F272F332705838B01222711
:1002A00033270683472F55276627772747831092E2
:1002B0000620109207201092082010920920813009
:1002C00019F4808180628083E0EDF0E08081807F9E
:1002D00080838081816080831F910F910895CF92E8
:1002E000DF92EF92FF92E1EDF0E080818160808308
:1002F000808180FDFDCF8091D00085FF2EC0409190
:10030000D4009091D5008091D6002091D70050E084
:1003100060E070E0722B592B682B20E280E090E0C7
:10032000DC01880F991FAA1FBB1F6A017B0131E006
:10033000C322DD24EE24FF248C0D9D1DAE1DBF1DA8
:100340007695679557954795215059F7BC01CD0192
:10035000609570958095909508C06091D4008091CB
:10036000D50070E0782B80E090E0E0EDF0E02081B7
:10037000207F208320812083FF90EF90DF90CF901B
:1003800008950F931F93CF93DF93EC018B01842F7C
:1003900070DF0115110551F0BE01600F711FE3ED13
:1003A000F0E089918083C617D707D9F798DFDF91EE
:1003B000CF911F910F910895CF93DF93FC01709619
:1003C00020E030E0C62FD0E0DE01022E02C0B5955D
:1003D000A7950A94E2F7A0FD50832F5F3F4F319617
:1003E0002830310589F740FF0AC041FF03C0FC01F6
:1003F000658302C0FC016683FC01618302C0FC01CD
:100400006283DF91CF91089543E050E068E080EC93
:1004100097E0D2DF40E058E164E080EC97E0CCCF99
:100420000895CF93DF93E0910A20F0910B2084810F
:1004300083FF08C08860848383E0838386EF809392
:10044000142083C0982F947131F083E083838FEF61
:10045000809314207AC086FF43C0CAE0D0E2AA810C
:10046000BB818C819D8114962D913C9115978217AB
:1004700093076CF49C012F5F3F4F20930E20309325
:100480000F20A80FB91F11968C9187835EC08091B1
:1004900010209091112018962D913C911997821758
:1004A0009307C8F420911220222321F086818160D5
:1004B00086834BC016962D913C911797AC014F5FE8
:1004C0005F4F4093102050931120D901A80FB91FFE
:1004D0008C9187833AC083E083831092142035C0C7
:1004E000882384F5AAE0B0E21296CD91DC911397AF
:1004F00016968D919C9117972885398582179307B9
:10050000D8F46E817F819C012F5F3F4F2093102094
:10051000309311204781DB01A80FB91F4C938885C8
:1005200099852817390718F482E083830EC087E085
:1005300083831092142009C083E0838389EF809322
:10054000142003C08BEF80931420DF91CF91089586
:100550001F920F920FB60F92112408B60F9218BE79
:1005600009B60F9219BE0BB60F921BBE2F933F9385
:100570004F935F936F937F938F939F93AF93BF93AB
:10058000EF93FF934EDFFF91EF91BF91AF919F915A
:100590008F917F916F915F914F913F912F910F902C
:1005A0000BBE0F9009BE0F9008BE0F900FBE0F90AC
:1005B0001F9018951F920F920FB60F92112408B634
:1005C0000F9218BE09B60F9219BE0BB60F921BBE42
:1005D0002F933F934F935F936F937F938F939F934B
:1005E000AF93BF93EF93FF931CDFFF91EF91BF9108
:1005F000AF919F918F917F916F915F914F913F91BB
:100600002F910F900BBE0F9009BE0F9008BE0F9058
:100610000FBE0F901F9018951F920F920FB60F925A
:10062000112408B60F9218BE09B60F9219BE0BB668
:100630000F921BBE2F933F934F935F936F937F93C4
:100640008F939F93AF93BF93EF93FF93EADEFF9156
:10065000EF91BF91AF919F918F917F916F915F913A
:100660004F913F912F910F900BBE0F9009BE0F90AD
:1006700008BE0F900FBE0F901F9018951F920F92FB
:100680000FB60F92112408B60F9218BE09B60F923A
:1006900019BE0BB60F921BBE2F933F934F935F93E0
:1006A0006F937F938F939F93AF93BF93EF93FF933A
:1006B000B8DEFF91EF91BF91AF919F918F917F91A4
:1006C0006F915F914F913F912F910F900BBE0F90C3
:1006D00009BE0F9008BE0F900FBE0F901F90189587
:1006E000FC01DB0114968C91858388EB818381E08A
:1006F0008483EAE0F0E211861286E0EAF0E082818B
:1007000082608283789480E00895CF93DF931F9274
:10071000CDB7DEB7DC01892B09F44BC0611571053B
:1007200009F449C0FB01928580911320882319F0B8
:100730009923F1F342C08FB78983F8948981EAE065
:10074000F0E291E0918790E892878FBFA083B18318
:100750006283738314821582168217824087FB019D
:100760008081880F24813581232B11F4411103C02E
:1007700016968C9303C0816016968C93EAE0F0E2A3
:1007800082858038E9F3E0910A20F0910B20848182
:100790008370813049F0AAE0B0E2ED91FC911197AD
:1007A000848183708130C9F7EAE0F0E282851186A6
:1007B00005C088EF03C088EF01C086EF0F90DF917E
:1007C000CF9108951F920F920FB60F92112408B681
:1007D0000F9218BE8F938091C3088093242081E0EC
:1007E000809323208F910F9008BE0F900FBE0F9023
:1007F0001F90189580E480934006E0ECF8E0808339
:1008000083E0818384E08093A20008955F926F92D9
:100810007F928F929F92AF92BF92CF92DF92EF9290
:10082000FF920F931F93CF93DF93CDB7DEB7EE9771
:10083000CDBFDEBF0F2EF9E07F2EF02D8E010F5FB2
:100840001F4FD801E72D1D92EA95E9F70F2EF0EA28
:100850008F2EF6E89F2EAA24A394B12CF02D898226
:100860009A82AB82BC820F2EF8E46F2EF02D69863F
:100870000F2EF5E0CF2ED12CE12CF12CF02DCD82D6
:10088000DE82EF82F88660E486E0DDDCB80180EB92
:1008900094E026DF075F1F4FD801E72D1D92EA95F0
:1008A000E9F78A869B86AC86BD860F2EF9E45F2E1B
:1008B000F02D5A8ACE86DF86E88AF98A60E486E0DF
:1008C000C2DCB80180EB94E00BDF075F1F4FD8015B
:1008D0001D927A94E9F78B8A9C8AAD8ABE8A0F2E84
:1008E000FAE4BF2EF02DBB8ECF8AD88EE98EFA8E19
:1008F00060E486E0A8DCB80180EB94E0F1DE82E4FD
:100900008C8F83E88D8F7BE0FE017E96DF01172FB1
:100910001D921A95E9F76E8E61E06F8F41E050E00D
:100920004AA35BA39E01245E3F4F2CA33DA382E01C
:1009300090E08EA39FA33B96DF01172F1D921A957F
:10094000E9F759A66AA74DA75EA72FA738AB89ABD1
:100950009AAB3B96DF011D927A95E9F7BCAA6DAB85
:1009600048AF59AF2AAF3BAF8CAF9DAF40E0BE015F
:10097000625E7F4F80EB94E0C8DE8111F7CF40E0EC
:10098000BE01675D7F4F80EB94E0BFDE8111F7CF42
:1009900040E0BE016C5C7F4F80EB94E0B6DE8111DD
:1009A000F7CFEE96CDBFDEBFDF91CF911F910F91B4
:1009B000FF90EF90DF90CF90BF90AF909F908F907F
:1009C0007F906F905F900895CF93DF93CDB7DEB7A0
:1009D0002D97CDBFDEBF18DD0DDF18DF81E08093DE
:1009E0001D2084E380931C2078948E010F5F1F4F9D
:1009F00044244394512C1E018CE0280E311C689431
:100A0000AA24A1F8B12C0F2EF0E0EF2EF0E2FF2E79
:100A1000F02D0F2EF0ECCF2EF8E0DF2EF02D0F2E64
:100A2000F5E26F2EF0E27F2EF02D0F2EF5E08F2EE7
:100A3000912CF02D80912320882309F4D1C080913E
:100A400024208A3A91F485E08093222010921B2082
:100A500010921A201092192010921720109218202C
:100A60001092162081E08093152080912220882307
:100A700099F190912420F401E81BF109EB5DFF4D01
:100A80009083815080932220811167C0F30184817B
:100A900090E0982F88272381822B809320209093A9
:100AA000212040E063E070E0C3016BDC60931E2016
:100AB00070931F2020912020309121202617370786
:100AC00039F48AEAF601838381E080931B2045C0D4
:100AD0008FEFF601838341C080911B208823E9F1C9
:100AE000F301828181110CC086E0F701AAE2B0E235
:100AF00001900D928A95E1F786E080931A2027C035
:100B0000813041F480911C2080932A2081E08093E1
:100B10001A201DC0823041F480911D2080932A202C
:100B200081E080931A2013C086E0F701AAE2B0E2C8
:100B300001900D928A95E1F7EAE2F0E280911C20A3
:100B4000868380911D20878388E080931A2080917E
:100B50001A208093192010921B2080911A2088233C
:100B6000E9F060911920E62FF0E0E81BF109E65D5D
:100B7000FF4D9081F6019383815080931A2081115B
:100B80002CC070E040E08AE290E2FBDB609317202B
:100B900070931820F2E0F09316201FC08091162069
:100BA0008823D9F0A501481B5109440F551F440F54
:100BB000551F440F551F209117203091182002C057
:100BC000369527954A95E2F7F60123838150809365
:100BD0001620811102C010921520109223202ACFD6
:100BE00080911520811126CFF8018BE011928A9512
:100BF000E9F7E8E4E9834D825E822F823886A98690
:100C0000BA8641E0B80180EB94E07FDD811105C038
:100C10008D85F70180838C858183F9E4F98341E038
:100C2000B80180EB94E071DD811105C08D85F7017D
:100C300082838C858383FAE4F98341E0B80180EBF9
:100C400094E063DD811105C08D85F70184838C8577
:0E0C5000858381E080931520EDCEF894FFCFD0
:060C5E000102030405067B
:00000001FF
