S01D00005350495F436F6D6D756E69636174696F6E5F4465762E73726563E8
S1130000FDC000001FC100001DC100001BC1000095
S113001019C1000017C1000015C1000013C1000080
S113002011C100000FC100000DC100000BC1000090
S113003009C100008DC2000005C1000003C1000019
S113004001C10000FFC00000FDC00000FBC00000B3
S1130050F9C00000F7C00000F5C00000F3C00000C4
S1130060B1C30000EFC00000EDC00000EBC0000011
S1130070E9C00000E7C00000E5C00000E3C00000E4
S1130080E1C00000DFC00000DDC00000DBC00000F4
S1130090D9C00000D7C00000D5C00000D3C0000004
S11300A0D1C00000CFC00000CDC00000CBC0000014
S11300B0C9C00000C7C00000AFC20000C3C0000038
S11300C0C1C00000BFC00000BDC00000BBC0000034
S11300D0B9C00000B7C00000B5C00000B3C0000044
S11300E0B1C00000AFC00000ADC00000ABC0000054
S11300F0A9C00000A7C00000A5C00000A3C0000064
S1130100A1C000009FC000009DC000009BC0000073
S113011099C0000097C0000095C0000093C0000083
S113012091C000008FC000008DC000008BC0000093
S113013041C2000087C0000085C0000083C00000E9
S113014081C000007FC000007DC000007BC00000B3
S113015079C0000077C0000075C0000073C00000C3
S113016071C000006FC000006DC000006BC00000D3
S113017069C0000067C0000065C0000063C00000E3
S113018061C000005FC000005DC000005BC00000F3
S113019059C0000057C0000055C0000053C0000003
S11301A051C000004FC000004DC0000067C20000F5
S11301B049C0000047C0000045C0000043C0000023
S11301C041C000003FC000003DC000003BC0000033
S11301D039C0000037C0000035C0000033C0000043
S11301E031C000002FC000002DC000002BC0000053
S11301F029C0000027C0000025C0000011241FBE34
S1130200CFEFCDBFDFE3DEBF00E00CBF18BE19BEE9
S11302101ABE1BBE10E2A0E0B0E2ECE3FBE000E09B
S11302200BBF02C007900D92A630B107D9F71BBED1
S113023020E2A6E0B0E201C01D92A233B207E1F7CA
S1130240E2D27AC4DDCECF93DF931F92CDB7DEB76F
S11302509FB79983F8949981E82FF0E0E059FF4F14
S113026060958081682360839FBF0F90DF91CF9159
S113027008950F931F93E0EDF0E0908190689083D0
S11302804091062050910720609108207091092028
S11302904483052F162F272F332705838B0122270D
S11302A033270683472F55276627772747831092DE
S11302B00620109207201092082010920920813005
S11302C019F4808180628083E0EDF0E08081807F9A
S11302D080838081816080831F910F910895CF92E4
S11302E0DF92EF92FF92E1EDF0E080818160808304
S11302F0808180FDFDCF8091D00085FF2EC040918C
S1130300D4009091D5008091D6002091D70050E080
S113031060E070E0722B592B682B20E280E090E0C3
S1130320DC01880F991FAA1FBB1F6A017B0131E002
S1130330C322DD24EE24FF248C0D9D1DAE1DBF1DA4
S11303407695679557954795215059F7BC01CD018E
S1130350609570958095909508C06091D4008091C7
S1130360D50070E0782B80E090E0E0EDF0E02081B3
S1130370207F208320812083FF90EF90DF90CF9017
S113038008950F931F93CF93DF93EC018B01842F78
S113039070DF0115110551F0BE01600F711FE3ED0F
S11303A0F0E089918083C617D707D9F798DFDF91EA
S11303B0CF911F910F910895CF93DF93FC01709615
S11303C020E030E0C62FD0E0DE01022E02C0B59559
S11303D0A7950A94E2F7A0FD50832F5F3F4F319613
S11303E02830310589F740FF0AC041FF03C0FC01F2
S11303F0658302C0FC016683FC01618302C0FC01C9
S11304006283DF91CF91089543E050E068E080EC8F
S113041097E0D2DF40E058E164E080EC97E0CCCF95
S11304200895CF93DF93E0910A20F0910B2084810B
S113043083FF08C08860848383E0838386EF80938E
S1130440142083C0982F947131F083E083838FEF5D
S1130450809314207AC086FF43C0CAE0D0E2AA8108
S1130460BB818C819D8114962D913C9115978217A7
S113047093076CF49C012F5F3F4F20930E20309321
S11304800F20A80FB91F11968C9187835EC08091AD
S113049010209091112018962D913C911997821754
S11304A09307C8F420911220222321F086818160D1
S11304B086834BC016962D913C911797AC014F5FE4
S11304C05F4F4093102050931120D901A80FB91FFA
S11304D08C9187833AC083E083831092142035C0C3
S11304E0882384F5AAE0B0E21296CD91DC911397AB
S11304F016968D919C9117972885398582179307B5
S1130500D8F46E817F819C012F5F3F4F2093102090
S1130510309311204781DB01A80FB91F4C938885C4
S113052099852817390718F482E083830EC087E081
S113053083831092142009C083E0838389EF80931E
S1130540142003C08BEF80931420DF91CF91089582
S11305501F920F920FB60F92112408B60F9218BE75
S113056009B60F9219BE0BB60F921BBE2F933F9381
S11305704F935F936F937F938F939F93AF93BF93A7
S1130580EF93FF934EDFFF91EF91BF91AF919F9156
S11305908F917F916F915F914F913F912F910F9028
S11305A00BBE0F9009BE0F9008BE0F900FBE0F90A8
S11305B01F9018951F920F920FB60F92112408B630
S11305C00F9218BE09B60F9219BE0BB60F921BBE3E
S11305D02F933F934F935F936F937F938F939F9347
S11305E0AF93BF93EF93FF931CDFFF91EF91BF9104
S11305F0AF919F918F917F916F915F914F913F91B7
S11306002F910F900BBE0F9009BE0F9008BE0F9054
S11306100FBE0F901F9018951F920F920FB60F9256
S1130620112408B60F9218BE09B60F9219BE0BB664
S11306300F921BBE2F933F934F935F936F937F93C0
S11306408F939F93AF93BF93EF93FF93EADEFF9152
S1130650EF91BF91AF919F918F917F916F915F9136
S11306604F913F912F910F900BBE0F9009BE0F90A9
S113067008BE0F900FBE0F901F9018951F920F92F7
S11306800FB60F92112408B60F9218BE09B60F9236
S113069019BE0BB60F921BBE2F933F934F935F93DC
S11306A06F937F938F939F93AF93BF93EF93FF9336
S11306B0B8DEFF91EF91BF91AF919F918F917F91A0
S11306C06F915F914F913F912F910F900BBE0F90BF
S11306D009BE0F9008BE0F900FBE0F901F90189583
S11306E0FC01DB0114968C91858388EB818381E086
S11306F08483EAE0F0E211861286E0EAF0E0828187
S113070082608283789480E00895CF93DF931F9270
S1130710CDB7DEB7DC01892B09F44BC06115710537
S113072009F449C0FB01928580911320882319F0B4
S11307309923F1F342C08FB78983F8948981EAE061
S1130740F0E291E0918790E892878FBFA083B18314
S11307506283738314821582168217824087FB0199
S11307608081880F24813581232B11F4411103C02A
S113077016968C9303C0816016968C93EAE0F0E29F
S113078082858038E9F3E0910A20F0910B2084817E
S11307908370813049F0AAE0B0E2ED91FC911197A9
S11307A0848183708130C9F7EAE0F0E282851186A2
S11307B005C088EF03C088EF01C086EF0F90DF917A
S11307C0CF9108951F920F920FB60F92112408B67D
S11307D00F9218BE8F938091C3088093242081E0E8
S11307E0809323208F910F9008BE0F900FBE0F901F
S11307F01F90189580E480934006E0ECF8E0808335
S113080083E081830895CF93DF93CDB7DEB7A597B7
S1130810CDBFDEBFF9DDEEDF84E08093A2007894E3
S1130820CE0101967C0189E0D7011D928A95E9F7F2
S113083080E593ECA0E0B0E089839A83AB83BC832A
S113084018E419878FE090E0A0E0B0E08D839E83E8
S1130850AF83B88760E486E0F6DCB70180EB94E010
S11308603FDF82E48A8783E88B87FE013C968BE036
S1130870DF011D928A95E9F71C8781E08D8781E06D
S113088090E0888B998BCE010A968A8B9B8B82E0B1
S113089090E08C8B9D8B40E0BE01645F7F4F80EBCA
S11308A094E033DF8111F7CFFE017796ECA3FDA32B
S11308B066246394712C2E01F2E24F0E511C68944D
S11308C0CC24C1F8D12C0F2EF0ECEF2EF8E0FF2E43
S11308D0F02D05E210E20F2EF6E08F2E912CF02D74
S11308E00F2EF5E0AF2EB12CF02D0F2EF0EC2F2EA5
S11308F0F7E03F2EF02D80912320882309F4F6C0E1
S1130900809124208A3AB1F488E0D10115968C9321
S113091085E08093222010921B2010921A201092BE
S1130920192010921720109218201092162081E09E
S11309308093152080912220882309F43DC0909152
S11309402420F501E81BF109EB5DFF4D90838150F4
S113095080932220811169C088E0F1018683D80147
S113096014968C91149790E0982F882713962C91C5
S1130970822B809320209093212040E063E070E05C
S1130980C801FFDC60931E2070931F20209120205B
S1130990309121202617370739F48AEAF701838337
S11309A081E080931B2041C088E0D10116968C938E
S11309B08FEFF701838339C080911B208823A9F12D
S11309C0D80112968C9181110FC086E0E0E0F0E22C
S11309D0AAE2B0E201900D928A95E1F786E0809355
S11309E01A20809319201FC08150823030F481E096
S11309F080931A208093192016C086E0E0E0F0E28C
S1130A00AAE2B0E201900D928A95E1F7EAE2F0E2FF
S1130A1080911D20868380911C20878388E08093A9
S1130A201A208093192010921B2080911A20882369
S1130A30D1F1F801928191110AC0F401E81BF10986
S1130A40E65DFF4D9081D70113969C9318C09130B9
S1130A5029F490911D20F701938311C0923031F451
S1130A6090911C20D70113969C9309C0E8E0F0E014
S1130A70E81BF109E65DFF4D9081F70193838150F6
S1130A8080931A2081112FC06091192070E040E0FA
S1130A908AE290E276DC609317207093182082E05B
S1130AA08093162020C0809116208823E1F0A601AF
S1130AB0481B5109440F551F440F551F440F551F20
S1130AC0209117203091182002C0369527954A9519
S1130AD0E2F7D70113962C9381508093162081114D
S1130AE002C0109215201092232005CF809115206A
S1130AF0811101CFECA1FDA18BE011928A95E9F758
S1130B0098E49F8B6B8E7C8E4D8E5E8ECF8ED8A29A
S1130B1041E0BE01695E7F4F80EB94E0F6DD811118
S1130B2007C08AA1A0E0B0E28C938BA1809301203E
S10F0B3081E080931520DFCEF894FFCF05
S1090B3C0102030405069A
S9030000FC
