:10000000FDC000001FC100001DC100001BC1000099
:1000100019C1000017C1000015C1000013C1000084
:1000200011C100000FC1000036C1000057C100001F
:1000300009C1000038C5000005C1000003C100006F
:1000400001C10000FFC00000FDC00000FBC00000B7
:10005000F9C00000F7C00000F5C00000F3C00000C8
:10006000FAC10000EFC00000EDC00000EBC00000CE
:10007000E9C00000E7C00000E5C00000E3C00000E8
:10008000E1C00000DFC00000DDC00000DBC00000F8
:10009000D9C00000D7C00000D5C00000D3C0000008
:1000A000D1C00000CFC00000CDC00000CBC0000018
:1000B000C9C00000C7C000005AC50000C3C000008E
:1000C000C1C00000BFC00000BDC00000BBC0000038
:1000D000B9C00000B7C00000B5C00000B3C0000048
:1000E000B1C00000AFC00000ADC00000ABC0000058
:1000F000A9C00000A7C00000A5C00000A3C0000068
:10010000A1C000009FC000009DC000009BC0000077
:1001100099C0000097C0000095C0000093C0000087
:1001200091C000008FC000008DC000008BC0000097
:10013000ECC4000087C0000085C0000083C0000040
:1001400081C000007FC000007DC000007BC00000B7
:1001500079C0000077C0000075C0000073C00000C7
:1001600071C000006FC000006DC000006BC00000D7
:1001700069C0000067C0000065C0000063C00000E7
:1001800061C000005FC000005DC000005BC00000F7
:1001900059C0000057C0000055C0000053C0000007
:1001A00051C000004FC000004DC0000012C500004B
:1001B00049C0000047C0000045C0000043C0000027
:1001C00041C000003FC000003DC000003BC0000037
:1001D00039C0000037C0000035C0000033C0000047
:1001E00031C000002FC000002DC000002BC0000057
:1001F00029C0000027C0000025C0000011241FBE38
:10020000CFEFCDBFDFE3DEBF00E00CBF18BE19BEED
:100210001ABE1BBE10E2A0E0B0E2ECE7FFE000E097
:100220000BBF02C007900D92AC30B107D9F71BBECF
:1002300020E2ACE0B0E201C01D92A33BB207E1F7BF
:100240008DD69AC6DDCECF93DF931F92CDB7DEB7A2
:1002500064E080E09DD2E0E0F4E08FEF9FEF8287E2
:1002600093871086118680912D208F3F09F4FFCF50
:100270008FB78983F8949981EAE2F0E283818F5FF6
:1002800083839FBFE0E0F4E081E0828380830F906E
:10029000DF91CF9108951F920F920FB60F92112404
:1002A00008B60F9218BE0BB60F921BBE8F939F938A
:1002B000EF93FF93E0E3F0E28081918101968083E8
:1002C0009183FF91EF919F918F910F900BBE0F90B3
:1002D00008BE0F900FBE0F901F9018951F920F929F
:1002E0000FB60F92112408B60F9218BE09B60F92DE
:1002F00019BE0BB60F921BBECF92DF92EF92FF9208
:100300000F931F932F933F934F935F936F937F931D
:100310008F939F93AF93BF93EF93FF93E0E3F0E24C
:10032000808191812281338182179307F0F121E04E
:1003300020930204E0913620F09137203097A9F104
:100340006091080470910904A0E0B0E0DC019927F5
:100350008827AB0160E070E08C019D01042B152B18
:10036000262B372BC901B801A0E3B0E212960D91FC
:100370001C91139720E030E0980111270027149674
:10038000CD90DC901597E12CF12C0C291D292E29FC
:100390003F29061717072807390730F0C901B801A8
:1003A0006F5F7F4F8F4F9F4F1995FF91EF91BF91D7
:1003B000AF919F918F917F916F915F914F913F91FD
:1003C0002F911F910F91FF90EF90DF90CF900F90A2
:1003D0000BBE0F9009BE0F9008BE0F900FBE0F907E
:1003E0001F901895FC0192A9DF01A90FB11D6C9314
:1003F0009F5F29E2929F212D11242695269526950F
:1004000082E3289F9019112492AB0895FC0193A9CF
:10041000DF01A90FB11D8C919F5F29E2929F212DD1
:10042000112426952695269532E3239F90191124B1
:1004300093AB0895FC0192A983A9981B892F99E297
:10044000899F912D112496959695969522E3929FDA
:100450008019112408951F920F920FB60F92112444
:1004600008B60F9218BE09B60F9219BE0BB60F92BE
:100470001BBE2F933F934F935F936F937F938F9305
:100480009F93AF93BF93EF93FF936091C30888E36B
:1004900090E2A8DF81E790E2CDDF882329F081E7B1
:1004A00090E2B4DF8093C308FF91EF91BF91AF91C9
:1004B0009F918F917F916F915F914F913F912F917C
:1004C0000F900BBE0F9009BE0F9008BE0F900FBE8D
:1004D0000F901F90189568E083E05AD180E48093D4
:1004E0004006E0ECF8E0808383E0818384E0809341
:1004F000A20084E3E8E3F0E2DF01982F1D929A95D1
:10050000E9F7E1E7F0E2DF011D928A95E9F7089546
:100510006F927F928F929F92AF92BF92CF92DF9213
:10052000EF92FF920F931F93CF93DF930F2EF5E07F
:100530009F2EF02DAA24A3940F2EFCE08F2EF02DD9
:100540000F2EFEE0BF2EF02DC5E0D0E00CE610E24D
:100550000F2EF0ECCF2EF8E0DF2EF02D0F2EFAEA62
:100560006F2EF02D6894EE24E1F8F12C6894772436
:1005700071F8B5C088E390E249DF8093172080913D
:1005800017208A3A81F4909216201092112010922E
:10059000102010920F2010920D2010920E20109219
:1005A0000C20A0922720909116209923B1F18091E0
:1005B0001720FE01E91BF109E459FF4D808391509A
:1005C00090931620911144C0F801848190E0982FF7
:1005D00088272381822B809314209093152040E05C
:1005E00063E070E0C80172D1609312207093132011
:1005F00020911420309115202617370749F4F60171
:100600006382662D81E790E2EDDEA092112020C08A
:1006100060EF81E790E2E6DE1BC080911120882325
:10062000B9F0E0E0F0E2A5EAB0E2882D01900D9289
:100630008A95E1F7E5EAF0E28091282084878091AD
:1006400029208587B0921020B0920F20109211209F
:1006500080911020882301F1E0910F20F0E0E81B49
:10066000F109EB55FF4D608181E790E2BBDE80919F
:100670001020815080931020811131C060910F2093
:1006800070E040E085EA90E221D160930D20709304
:100690000E2070920C2023C080910C208823F9F04A
:1006A0009701281B3109C901880F991F880F991FCD
:1006B000880F991F60910D2070910E2002C07695D1
:1006C00067958A95E2F781E790E28CDE80910C20B5
:1006D000815080930C20811102C01092272088E362
:1006E00090E2A8DE811146CFDF91CF911F910F914B
:1006F000FF90EF90DF90CF90BF90AF909F908F9042
:100700007F906F900895CF93DF9300D0CDB7DEB781
:100710008FEF8093700080937100809372008093BC
:1007200073008093740080937500809376008FB778
:100730008A83F8949A81E0E5F0E08081826080838A
:100740009FBF818181FFFDCF61E080E490E0D9D03F
:100750008FB78B83F8949B81E0E5F0E080818E7FFA
:1007600080839FBF82E082838FB78983F8949981C9
:100770008081886080839FBF818183FFFDCF8BE074
:10078000809343002396CDBFDEBFDF91CF910895C4
:10079000CF93DF931F92CDB7DEB79FB79983F894BD
:1007A0009981E82FF0E0E059FF4F60958081682340
:1007B00060839FBF0F90DF91CF9108950F931F9398
:1007C000E0EDF0E090819068908340911820509186
:1007D000192060911A2070911B204483052F162F39
:1007E000272F332705838B01222733270683472FA3
:1007F00055276627772747831092182010921920D3
:1008000010921A2010921B20813019F4808180628E
:100810008083E0EDF0E08081807F80838081816053
:1008200080831F910F910895CF92DF92EF92FF92F4
:10083000E1EDF0E0808181608083808180FDFDCFEB
:100840008091D00085FF2EC04091D4009091D500BA
:100850008091D6002091D70050E060E070E0722BCC
:10086000592B682B20E280E090E0DC01880F991F73
:10087000AA1FBB1F6A017B0131E0C322DD24EE24E5
:10088000FF248C0D9D1DAE1DBF1D76956795579558
:100890004795215059F7BC01CD0160957095809521
:1008A000909508C06091D4008091D50070E0782BBD
:1008B00080E090E0E0EDF0E02081207F2083208147
:1008C0002083FF90EF90DF90CF9008950F931F93B8
:1008D000CF93DF93EC018B01842F70DF011511059D
:1008E00051F0BE01600F711FE3EDF0E0899180834C
:1008F000C617D707D9F798DFDF91CF911F910F91D6
:1009000008951BBEFC0128ED24BF60830895CF939A
:10091000DF93FC01709620E030E0C62FD0E0DE01CE
:10092000022E02C0B595A7950A94E2F7A0FD508368
:100930002F5F3F4F31962830310589F740FF0AC0BD
:1009400041FF03C0FC01658302C0FC016683FC011A
:10095000618302C0FC016283DF91CF91089543E07F
:1009600050E068E080EC97E0D2DF40E058E164E0DE
:1009700080EC97E0CCCF0895CF93DF93E0911C20DB
:10098000F0911D20848183FF08C08860848383E008
:10099000838386EF8093262083C0982F947131F053
:1009A00083E083838FEF809326207AC086FF43C045
:1009B000CCE1D0E2AA81BB818C819D8114962D91DE
:1009C0003C911597821793076CF49C012F5F3F4F62
:1009D0002093202030932120A80FB91F11968C91CD
:1009E00087835EC0809122209091232018962D91BC
:1009F0003C91199782179307C8F420912420222351
:100A000021F08681816086834BC016962D913C91A2
:100A10001797AC014F5F5F4F4093222050932320E4
:100A2000D901A80FB91F8C9187833AC083E08383D3
:100A30001092262035C0882384F5ACE1B0E21296EE
:100A4000CD91DC91139716968D919C9117972885DF
:100A5000398582179307D8F46E817F819C012F5FBF
:100A60003F4F20932220309323204781DB01A80FA2
:100A7000B91F4C93888599852817390718F482E0A7
:100A800083830EC087E083831092262009C083E011
:100A9000838389EF8093262003C08BEF80932620E9
:100AA000DF91CF9108951F920F920FB60F921124EC
:100AB00008B60F9218BE09B60F9219BE0BB60F9268
:100AC0001BBE2F933F934F935F936F937F938F93AF
:100AD0009F93AF93BF93EF93FF934EDFFF91EF91FF
:100AE000BF91AF919F918F917F916F915F914F9146
:100AF0003F912F910F900BBE0F9009BE0F9008BE33
:100B00000F900FBE0F901F9018951F920F920FB667
:100B10000F92112408B60F9218BE09B60F9219BE93
:100B20000BB60F921BBE2F933F934F935F936F9320
:100B30007F938F939F93AF93BF93EF93FF931CDFAC
:100B4000FF91EF91BF91AF919F918F917F916F91A5
:100B50005F914F913F912F910F900BBE0F9009BE67
:100B60000F9008BE0F900FBE0F901F9018951F9208
:100B70000F920FB60F92112408B60F9218BE09B645
:100B80000F9219BE0BB60F921BBE2F933F934F933C
:100B90005F936F937F938F939F93AF93BF93EF93E5
:100BA000FF93EADEFF91EF91BF91AF919F918F91FB
:100BB0007F916F915F914F913F912F910F900BBE5D
:100BC0000F9009BE0F9008BE0F900FBE0F901F90A0
:100BD00018951F920F920FB60F92112408B60F921C
:100BE00018BE09B60F9219BE0BB60F921BBE2F93FB
:100BF0003F934F935F936F937F938F939F93AF93A5
:100C0000BF93EF93FF93B8DEFF91EF91BF91AF9148
:100C10009F918F917F916F915F914F913F912F9114
:100C20000F900BBE0F9009BE0F9008BE0F900FBE25
:100C30000F901F901895FC01DB0114968C91858311
:100C400088EB818381E08483ECE1F0E211861286F7
:100C5000E0EAF0E0828182608283789480E0089507
:100C6000CF93DF931F92CDB7DEB7DC01892B09F458
:100C70004BC06115710509F449C0FB019285809153
:100C80002520882319F09923F1F342C08FB7898377
:100C9000F8948981ECE1F0E291E0918790E8928705
:100CA0008FBFA083B18362837383148215821682FF
:100CB00017824087FB018081880F24813581232B97
:100CC00011F4411103C016968C9303C081601696EF
:100CD0008C93ECE1F0E282858038E9F3E0911C200E
:100CE000F0911D2084818370813049F0ACE1B0E245
:100CF000ED91FC911197848183708130C9F7ECE10B
:100D0000F0E28285118605C088EF03C088EF01C03C
:100D100086EF0F90DF91CF9108954F925F926F927F
:100D20007F928F929F92AF92BF92CF92DF92EF927B
:100D3000FF920F931F93CF93DF93CDB7DEB7C255CA
:100D4000D109CDBFDEBF0F2EF9E07F2EF02D8E0131
:100D50000F5F1F4FD801E72D1D92EA95E9F70F2E7F
:100D6000F0EA8F2EF6E89F2EAA24A394B12CF02D42
:100D700089829A82AB82BC820F2EF8E46F2EF02D0E
:100D800069860F2EFBE9CF2ED12CE12CF12CF02D12
:100D9000CD82DE82EF82F88660E486E0F9DCB8017D
:100DA00080EB94E048DF075F1F4FD801E72D1D92CD
:100DB000EA95E9F78A869B86AC86BD860F2EF9E414
:100DC0005F2EF02D5A8ACE86DF86E88AF98A60E4A3
:100DD00086E0DEDCB80180EB94E02DDF075F1F4F7B
:100DE000D801E72D1D92EA95E9F78B8A9C8AAD8A96
:100DF000BE8A0F2EFAE44F2EF02D4B8ECF8AD88E5E
:100E0000E98EFA8E60E486E0C3DCB80180EB94E002
:100E100012DF075F1F4FD8011D927A94E9F78C8E7D
:100E20009D8EAE8EBF8E0F2EFBE4BF2EF02DBCA28A
:100E3000C8A2D9A2EAA2FBA260E486E0A9DCB801BC
:100E400080EB94E0F8DE82E48DA383EE8EA3055F51
:100E50001F4F0F2EFBE0FF2EF02DF8016F2D11928A
:100E60006A95E9F771E078A741E050E04BA75CA7ED
:100E70006FA29E012B5D3F4F2DA73EA782E090E021
:100E80008FA798ABDE01D296FD016F2D11926A9566
:100E9000E9F77BAB4EAB5FAB5AAA28AF39AF8AAF4D
:100EA0009BAF1B96FD016F2D11926A95E9F77EAFFE
:100EB00023964EAF5FAF23974DAE25962EAF3FAF33
:100EC000259727968EAF9FAF2797FE01E85BFF4FD0
:100ED000DF011D92FA94E9F7718344835583B08250
:100EE000268337838087918740E0B80180EB94E0C8
:100EF000B7DE11E0811101C010E040E0BE016E5C80
:100F00007F4F80EB94E0ACDE8111126040E0BE01C7
:100F1000635C7F4F80EB94E0A3DE8111146040E0BE
:100F2000BE01685B7F4F80EB94E09ADE8111186010
:100F3000812FCE5ADF4FCDBFDEBFDF91CF911F9102
:100F40000F91FF90EF90DF90CF90BF90AF909F9068
:100F50008F907F906F905F904F90089500DDD3DB6E
:100F600072D9B9DA7894D9DE81E08093292084E3BC
:0C0F700080932820CDDAFECFF894FFCF4C
:0C0F7C0001020304050600000000000054
:00000001FF
