:10000000FDC000001FC100001DC100001BC1000099
:1000100019C1000017C1000015C1000013C1000084
:1000200011C100000FC100000DC100000BC1000094
:1000300009C100008EC3000005C1000003C100001B
:1000400001C10000FFC00000FDC00000FBC00000B7
:10005000F9C00000F7C00000F5C00000F3C00000C8
:10006000F2C00000EFC00000EDC00000EBC00000D7
:10007000E9C00000E7C00000E5C00000E3C00000E8
:10008000E1C00000DFC00000DDC00000DBC00000F8
:10009000D9C00000D7C00000D5C00000D3C0000008
:1000A000D1C00000CFC00000CDC00000CBC0000018
:1000B000C9C00000C7C00000B0C30000C3C000003A
:1000C000C1C00000BFC00000BDC00000BBC0000038
:1000D000B9C00000B7C00000B5C00000B3C0000048
:1000E000B1C00000AFC00000ADC00000ABC0000058
:1000F000A9C00000A7C00000A5C00000A3C0000068
:10010000A1C000009FC000009DC000009BC0000077
:1001100099C0000097C0000095C0000093C0000087
:1001200091C000008FC000008DC000008BC0000097
:1001300042C3000087C0000085C0000083C00000EB
:1001400081C000007FC000007DC000007BC00000B7
:1001500079C0000077C0000075C0000073C00000C7
:1001600071C000006FC000006DC000006BC00000D7
:1001700069C0000067C0000065C0000063C00000E7
:1001800061C000005FC000005DC000005BC00000F7
:1001900059C0000057C0000055C0000053C0000007
:1001A00051C000004FC000004DC0000068C30000F7
:1001B00049C0000047C0000045C0000043C0000027
:1001C00041C000003FC000003DC000003BC0000037
:1001D00039C0000037C0000035C0000033C0000047
:1001E00031C000002FC000002DC000002BC0000057
:1001F00029C0000027C0000025C0000011241FBE38
:10020000CFEFCDBFDFE3DEBF00E00CBF18BE19BEED
:100210001ABE1BBE10E2A0E0B0E2E6E6FCE000E0A1
:100220000BBF02C007900D92A630B107D9F71BBED5
:1002300020E2A6E0B0E201C01D92A233B207E1F7CE
:10024000A0D40FC5DDCE1F920F920FB60F921124CE
:1002500008B60F9218BE8F938091C3088093122026
:1002600081E0809311208F910F9008BE0F900FBEF8
:100270000F901F90189580E480934006E0ECF8E022
:10028000808383E0818384E08093A200089580913D
:100290001120882309F4D7C0809112208A3A91F462
:1002A00085E08093102010920B2010920A2010926B
:1002B000092010920720109208201092062081E059
:1002C00080932220809110208823A9F19091122000
:1002D000E5E0F0E0E81BF109EB5DFF4D9083815014
:1002E0008093102081116BC0E5E2F0E2848190E000
:1002F000982F88272381822B80930E2090930F20A4
:1003000040E063E070E0CF013DD160930C2070933A
:100310000D2020910E2030910F202617370739F439
:100320008AEA8093C30881E080930B2048C08FEF56
:100330008093C30844C080910B20882309F43FC0F8
:100340008091272081110DC086E0E0E0F0E2AAE272
:10035000B0E201900D928A95E1F786E080930A2041
:1003600028C0813041F48091232080932A2081E0AD
:1003700080930A201EC0823041F480912420809313
:100380002A2081E080930A2014C086E0E0E0F0E2B9
:10039000AAE2B0E201900D928A95E1F7EAE2F0E27A
:1003A00080912320868380912420878388E0809316
:1003B0000A2080910A208093092010920B208091BE
:1003C0000A208823E9F060910920E62FF0E0E81B7D
:1003D000F109E65DFF4D90819093C30881508093B1
:1003E0000A2081112EC070E040E08AE290E2CAD07B
:1003F000609307207093082082E08093062021C03C
:10040000809106208823E9F022E030E0281B3109A2
:10041000220F331F220F331F220F331F409107205B
:1004200050910820BA0102C0769567952A95E2F7A7
:100430006093C308815080930620811102C01092FE
:100440002220109211200895CF93DF931F92CDB7F1
:10045000DEB79FB79983F8949981E82FF0E0E059CF
:10046000FF4F60958081682360839FBF0F90DF916D
:10047000CF9108950F931F93E0EDF0E09081906885
:100480009083409113205091142060911520709119
:1004900016204483052F162F272F332705838B0122
:1004A000222733270683472F552766277727478339
:1004B00010921320109214201092152010921620E2
:1004C000813019F4808180628083E0EDF0E08081EA
:1004D000807F80838081816080831F910F91089548
:1004E000CF92DF92EF92FF92E1EDF0E080818160A8
:1004F0008083808180FDFDCF8091D00085FF2EC05C
:100500004091D4009091D5008091D6002091D700E1
:1005100050E060E070E0722B592B682B20E280E005
:1005200090E0DC01880F991FAA1FBB1F6A017B01A5
:1005300031E0C322DD24EE24FF248C0D9D1DAE1D71
:10054000BF1D7695679557954795215059F7BC0182
:10055000CD01609570958095909508C06091D4000C
:100560008091D50070E0782B80E090E0E0EDF0E045
:100570002081207F208320812083FF90EF90DF90D7
:10058000CF9008950F931F93CF93DF93EC018B01CE
:10059000842F70DF0115110551F0BE01600F711F2E
:1005A000E3EDF0E089918083C617D707D9F798DF8C
:1005B000DF91CF911F910F910895CF93DF93FC01AD
:1005C000709620E030E0C62FD0E0DE01022E02C09F
:1005D000B595A7950A94E2F7A0FD50832F5F3F4F92
:1005E00031962830310589F740FF0AC041FF03C02A
:1005F000FC01658302C0FC016683FC01618302C0CB
:10060000FC016283DF91CF91089543E050E068E000
:1006100080EC97E0D2DF40E058E164E080EC97E0C6
:10062000CCCF0895CF93DF93E0911720F09118205D
:10063000848183FF08C08860848383E0838386EF9E
:100640008093212083C0982F947131F083E08383BD
:100650008FEF809321207AC086FF43C0C7E1D0E2AC
:10066000AA81BB818C819D8114962D913C91159717
:10067000821793076CF49C012F5F3F4F20931B2040
:1006800030931C20A80FB91F11968C9187835EC0F0
:1006900080911D2090911E2018962D913C911997C4
:1006A00082179307C8F420911F20222321F086810E
:1006B000816086834BC016962D913C911797AC01B3
:1006C0004F5F5F4F40931D2050931E20D901A80F0C
:1006D000B91F8C9187833AC083E0838310922120D5
:1006E00035C0882384F5A7E1B0E21296CD91DC9164
:1006F000139716968D919C911797288539858217A7
:100700009307D8F46E817F819C012F5F3F4F209328
:100710001D2030931E204781DB01A80FB91F4C9389
:10072000888599852817390718F482E083830EC0DD
:1007300087E083831092212009C083E0838389EFBF
:100740008093212003C08BEF80932120DF91CF91F4
:1007500008951F920F920FB60F92112408B60F92B0
:1007600018BE09B60F9219BE0BB60F921BBE2F937F
:100770003F934F935F936F937F938F939F93AF9329
:10078000BF93EF93FF934EDFFF91EF91BF91AF9136
:100790009F918F917F916F915F914F913F912F9199
:1007A0000F900BBE0F9009BE0F9008BE0F900FBEAA
:1007B0000F901F9018951F920F920FB60F92112451
:1007C00008B60F9218BE09B60F9219BE0BB60F925B
:1007D0001BBE2F933F934F935F936F937F938F93A2
:1007E0009F93AF93BF93EF93FF931CDFFF91EF9124
:1007F000BF91AF919F918F917F916F915F914F9139
:100800003F912F910F900BBE0F9009BE0F9008BE25
:100810000F900FBE0F901F9018951F920F920FB65A
:100820000F92112408B60F9218BE09B60F9219BE86
:100830000BB60F921BBE2F933F934F935F936F9313
:100840007F938F939F93AF93BF93EF93FF93EADED2
:10085000FF91EF91BF91AF919F918F917F916F9198
:100860005F914F913F912F910F900BBE0F9009BE5A
:100870000F9008BE0F900FBE0F901F9018951F92FB
:100880000F920FB60F92112408B60F9218BE09B638
:100890000F9219BE0BB60F921BBE2F933F934F932F
:1008A0005F936F937F938F939F93AF93BF93EF93D8
:1008B000FF93B8DEFF91EF91BF91AF919F918F9120
:1008C0007F916F915F914F913F912F910F900BBE50
:1008D0000F9009BE0F9008BE0F900FBE0F901F9093
:1008E0001895FC01DB0114968C91858388EB81833C
:1008F00081E08483E7E1F0E211861286E0EAF0E02D
:10090000828182608283789480E00895CF93DF9320
:100910001F92CDB7DEB7DC01892B09F44BC06115FE
:10092000710509F449C0FB0192858091202088233C
:1009300019F09923F1F342C08FB78983F894898124
:10094000E7E1F0E291E0918790E892878FBFA08382
:10095000B183628373831482158216821782408763
:10096000FB018081880F24813581232B11F44111F3
:1009700003C016968C9303C0816016968C93E7E1B2
:10098000F0E282858038E9F3E0911720F091182099
:1009900084818370813049F0A7E1B0E2ED91FC9150
:1009A0001197848183708130C9F7E7E1F0E2828595
:1009B000118605C088EF03C088EF01C086EF0F9055
:1009C000DF91CF9108955F926F927F928F929F9265
:1009D000AF92BF92CF92DF92EF92FF920F931F934D
:1009E000CF93DF93CDB7DEB7EE97CDBFDEBF0F2E2F
:1009F000F9E07F2EF02D8E010F5F1F4FD801E72DFC
:100A00001D92EA95E9F70F2EF0EA8F2EF6E89F2E59
:100A1000AA24A394B12CF02D89829A82AB82BC8245
:100A20000F2EF8E46F2EF02D69860F2EF5E0CF2EF5
:100A3000D12CE12CF12CF02DCD82DE82EF82F886D4
:100A400060E486E001DDB80180EB94E04ADF075FF7
:100A50001F4FD801E72D1D92EA95E9F78A869B86FC
:100A6000AC86BD860F2EF9E45F2EF02D5A8ACE8615
:100A7000DF86E88AF98A60E486E0E6DCB80180EB8C
:100A800094E02FDF075F1F4FD8011D927A94E9F79A
:100A90008B8A9C8AAD8ABE8A0F2EFAE4BF2EF02D77
:100AA000BB8ECF8AD88EE98EFA8E60E486E0CCDCED
:100AB000B80180EB94E015DF82E48C8F83E88D8FA2
:100AC0007BE0FE017E96DF01172F1D921A95E9F754
:100AD0006E8E61E06F8F41E050E04AA35BA39E0100
:100AE000245E3F4F2CA33DA382E090E08EA39FA302
:100AF0003B96DF01172F1D921A95E9F759A66AA7B1
:100B00004DA75EA72FA738AB89AB9AAB3B96DF0109
:100B10001D927A95E9F7BCAA6DAB48AF59AF2AAFE1
:100B20003BAF8CAF9DAF40E0BE01625E7F4F80EB7C
:100B300094E0ECDE8111F7CF40E0BE01675D7F4FAE
:100B400080EB94E0E3DE8111F7CF40E0BE016C5C06
:100B50007F4F80EB94E0DADE8111F7CFEE96CDBFC8
:100B6000DEBFDF91CF911F910F91FF90EF90DF904B
:100B7000CF90BF90AF909F908F907F906F905F903D
:100B80000895CF93DF93CDB7DEB72D97CDBFDEBFEE
:100B90003CDD71DB18DF81E08093242084E38093C7
:100BA000232078940F2EFBE04F2EF02D8E010F5F47
:100BB0001F4F0F2EF8E45F2EF02D88248394912C84
:100BC0005E018CE0A80EB11C6894CC24C1F8D12C35
:100BD0000F2EF0E0EF2EF0E2FF2EF02D0F2EF9E4B5
:100BE0006F2EF02D0F2EFAE47F2EF02D50DB80912A
:100BF00022208111FBCFF801842D11928A95E9F70B
:100C000059828D829E82AF82B886C986DA8641E09B
:100C1000B80180EB94E07ADE811105C08D85F70183
:100C200080838C858183698241E0B80180EB94E008
:100C30006DDE811105C08D85F70182838C858383EC
:100C4000798241E0B80180EB94E060DE811105C05B
:100C50008D85F70184838C85858381E080932220B4
:060C6000C5CFF894FFCFA0
:060C660001020304050673
:00000001FF
