:10000000FDC000001FC100001DC100001BC1000099
:1000100019C1000017C1000015C1000013C1000084
:1000200011C100000FC100000DC100000BC1000094
:1000300009C1000007C1000005C1000003C10000A4
:1000400001C10000FFC00000FDC00000FBC00000B7
:10005000F9C00000F7C00000F5C00000F3C00000C8
:10006000CAC10000EFC00000EDC00000EBC00000FE
:10007000E9C00000E7C00000E5C00000E3C00000E8
:10008000E1C00000DFC00000DDC00000DBC00000F8
:10009000D9C00000D7C00000D5C00000D3C0000008
:1000A000D1C00000CFC00000CDC00000CBC0000018
:1000B000C9C00000C7C00000C5C00000C3C0000028
:1000C000C1C00000BFC00000BDC00000BBC0000038
:1000D000B9C00000B7C00000B5C00000B3C0000048
:1000E000B1C00000AFC00000ADC00000ABC0000058
:1000F000A9C00000A7C00000A5C00000A3C0000068
:10010000A1C000009FC000009DC000009BC0000077
:1001100099C0000097C0000095C0000093C0000087
:1001200091C000008FC000008DC000008BC0000097
:1001300089C0000087C0000085C0000083C00000A7
:1001400081C000007FC000007DC000007BC00000B7
:1001500079C0000077C0000075C0000073C00000C7
:1001600071C000006FC000006DC000006BC00000D7
:1001700069C0000067C0000065C0000063C00000E7
:1001800061C000005FC000005DC000005BC00000F7
:1001900059C0000057C0000055C0000053C0000007
:1001A00051C000004FC000004DC000004BC0000017
:1001B00049C0000047C0000045C0000043C0000027
:1001C00041C000003FC000003DC000003BC0000037
:1001D00039C0000037C0000035C0000033C0000047
:1001E00031C000002FC000002DC000002BC0000057
:1001F00029C0000027C0000025C0000011241FBE38
:10020000CFEFCDBFDFE3DEBF00E00CBF18BE19BEED
:100210001ABE1BBE10E2A0E0B0E2E2E1F5E000E0B1
:100220000BBF02C007900D92A031B107D9F71BBEDA
:1002300020E2A0E1B0E201C01D92A332B207E1F7D3
:1002400052D165C1DDCE0F931F93E0EDF0E09081B8
:10025000906890834091102050911120609112205D
:10026000709113204483052F162F272F33270583E2
:100270008B01222733270683472F552766277727A9
:100280004783109210201092112010921220109289
:100290001320813019F4808180628083E0EDF0E0EA
:1002A0008081807F80838081816080831F910F9116
:1002B0000895CF92DF92EF92FF92E1EDF0E080811E
:1002C00081608083808180FDFDCF8091D00085FF9B
:1002D0002EC04091D4009091D5008091D6002091FD
:1002E000D70050E060E070E0722B592B682B20E2C1
:1002F00080E090E0DC01880F991FAA1FBB1F6A01F4
:100300007B0131E0C322DD24EE24FF248C0D9D1DF2
:10031000AE1DBF1D7695679557954795215059F7A6
:10032000BC01CD01609570958095909508C0609155
:10033000D4008091D50070E0782B80E090E0E0ED73
:10034000F0E02081207F208320812083FF90EF90A8
:10035000DF90CF9008950F931F93CF93DF93EC011D
:100360008B01842F70DF0115110551F0BE01600F64
:10037000711FE3EDF0E089918083C617D707D9F7A5
:1003800098DFDF91CF911F910F910895CF93DF9365
:10039000FC01709620E030E0C62FD0E0DE01022E96
:1003A00002C0B595A7950A94E2F7A0FD50832F5F90
:1003B0003F4F31962830310589F740FF0AC041FF91
:1003C00003C0FC01658302C0FC016683FC016183FC
:1003D00002C0FC016283DF91CF91089543E050E0B9
:1003E00068E080EC97E0D2DF40E058E164E080EC28
:1003F00097E0CCCF08951F920F920FB60F92112461
:1004000008B60F9218BE0BB60F921BBE2F933F93E8
:100410004F935F938F939F93EF93FF938091C308C4
:1004200080931620809116208A3A21F481E08093EF
:10043000142004C0809114208823D9F180911520C4
:1004400020910020821760F490E0FC01EF5FFF4DE7
:100450002081FC01E95EFF4D20832093C30824C066
:1004600090E030E0A9014E5F5F4F84179507ACF430
:10047000821B930B880F991F880F991F880F991F54
:1004800020910D2030910E20A90102C0569547956C
:100490008A95E2F74093C30807C010921420109287
:1004A00015201092C30805C0809115208F5F80939E
:1004B0001520FF91EF919F918F915F914F913F9107
:1004C0002F910F900BBE0F9008BE0F900FBE0F9094
:1004D0001F90189580E480934006E0ECF8E080835C
:1004E00083E0818308957ADFF5DF84E08093A200C2
:1004F000789440E06CE070E081E090E22CDF609363
:100500000D2070930E208FEF8093C308FFCFF894D7
:02051000FFCF1B
:100512000CAB0B0C0F0E5566778899BBAAFFFF0038
:00000001FF
