:10000000FDC0000017C1000015C1000013C10000B1
:1000100011C100000FC100000DC100000BC10000A4
:1000200009C1000007C1000005C1000003C10000B4
:1000300001C10000FFC00000FDC00000FBC00000C7
:10004000F9C00000F7C00000F5C00000F3C00000D8
:10005000F1C00000EFC00000EDC00000EBC00000E8
:10006000E9C00000E7C00000E5C00000E3C00000F8
:10007000E1C00000DFC00000DDC00000DBC0000008
:10008000D9C00000D7C00000D5C00000D3C0000018
:10009000D1C00000CFC00000CDC00000CBC0000028
:1000A000C9C00000C7C00000C5C00000C3C0000038
:1000B000C1C00000BFC00000BDC00000BBC0000048
:1000C000B9C00000B7C00000B5C00000B3C0000058
:1000D000B1C00000AFC00000ADC00000ABC0000068
:1000E000A9C00000A7C00000A5C00000A3C0000078
:1000F000A1C000009FC000009DC000009BC0000088
:1001000099C0000097C0000095C0000093C0000097
:1001100091C000008FC000008DC000008BC00000A7
:1001200089C0000087C0000085C0000083C00000B7
:1001300081C000007FC000007DC000007BC00000C7
:1001400079C0000077C0000075C0000073C00000D7
:1001500071C000006FC000006DC000006BC00000E7
:1001600069C0000067C0000065C0000063C00000F7
:1001700061C000005FC000005DC000005BC0000007
:1001800059C0000057C0000055C0000053C0000017
:1001900051C000004FC000004DC000004BC0000027
:1001A00049C0000047C0000045C0000043C0000037
:1001B00041C000003FC000003DC000003BC0000047
:1001C00039C0000037C0000035C0000033C0000057
:1001D00031C000002FC000002DC000002BC0000067
:1001E00029C0000027C0000025C0000023C0000077
:1001F00021C000001FC000001DC0000011241FBE50
:10020000CFEFCDBFDFE3DEBF00E00CBF18BE19BEED
:100210001ABE1BBE10E2A0E0B0E2E8E7F6E000E0A4
:100220000BBF02C007900D92A630B107D9F71BBED5
:1002300098D120C2E5CE0F931F93CF93DF93EC01AB
:100240008C01C03C88E0D80721F468E083E07CD0D2
:1002500010C0C03C89E0D80721F468E084E074D085
:100260000EC0C03C8AE0D80721F468E085E06CD07D
:1002700006C0003C1B4019F468E086E065D0888128
:1002800080618883DF91CF911F910F910895EF9244
:10029000FF920F931F93CF937C01C42FB901A80144
:1002A00000E814E82EE130E065D0882344F0F7013F
:1002B0009081CC0FCC0FCC70937FC92BC083CF9192
:1002C0001F910F91FF90EF900895FC01DB01411504
:1002D000510561F0460F571F2FEF23839281992319
:1002E000ECF783818D93A417B507B9F780E00895E3
:1002F000FB018081E82FE695E695E69540E2E49FD4
:10030000F0011124FA5F877021E030E0A90102C0FA
:10031000440F551F8A95E2F746830895FB018081BB
:10032000E82FE695E695E69540E2E49FF00111247A
:10033000FA5F877021E030E0A90102C0440F551F29
:100340008A95E2F745830895CF93DF931F92CDB747
:10035000DEB79FB79983F8949981E82FF0E0E059D0
:10036000FF4F60958081682360839FBF0F90DF916E
:10037000CF910895CF92DF92EF92FF920F931F9348
:10038000CF93DF93EC016A017B01DB01CA01019786
:10039000A109B109BC01CD01600F711F821F931F1C
:1003A000A701960145D12138310541055105F8F4E1
:1003B000213460F4213260F4213160F4293060F49A
:1003C000253060F4233060F480E80BC083E009C07E
:1003D00082E007C082E805C081E003C081E801C077
:1003E00080E098819C77982B988381E001C08FEF03
:1003F000DF91CF911F910F91FF90EF90DF90CF9001
:100400000895CF93DF93FC01709620E030E0C62F73
:10041000D0E0DE01022E02C0B595A7950A94E2F75E
:10042000A0FD50832F5F3F4F31962830310589F76B
:1004300040FF0AC041FF03C0FC01658302C0FC010C
:100440006683FC01618302C0FC016283DF91CF916E
:10045000089543E050E068E080EC97E0D2DF40E0B0
:1004600058E164E080EC97E0CCCF089543E050E0A1
:1004700061E080EA96E0C5DF43E050E062E080EAB8
:1004800096E0BFDF43E050E064E080EA96E0B9DF49
:1004900043E050E068E080EA96E0B3DF43E050E0FC
:1004A00061E080EE97E0ADDF40E058E160E180EA96
:1004B00096E0A7DF40E050E060E480EA96E0A1DF4C
:1004C00043E050E060E880EA96E09BCF0895CF9249
:1004D000DF92EF92FF920F931F9380EC9BE0ABDED5
:1004E000C12CD12C760100E412E42FE030E040E092
:1004F00064E070E280EC9BE0CADE00E412E42FE0EE
:1005000030E040E063E070E280EC9BE0C0DE00E4BD
:1005100012E42FE030E040E062E070E280EC9BE02B
:10052000B6DE00E412E42FE030E040E061E070E28B
:1005300080EC9BE0ACDE00E412E42FE030E040E031
:1005400060E070E280EC9BE0A2DEE0ECFBE080810A
:10055000806480831F910F91FF90EF90DF90CF9088
:100560000895CF93DF931F921F92CDB7DEB771DF4F
:100570007DDFADDF8BEA89838A8364E070E280EC03
:100580009BE0B6DE42E050E0BE016F5F7F4F80EC43
:100590009BE09BDE64E070E280EC9BE0BFDE64E009
:1005A00070E280EC9BE0A4DE42E050E0BE016F5FB1
:1005B0007F4F80EC9BE089DE64E070E280EC9BE0A2
:1005C000ADDE64E070E280EC9BE092DE42E050E061
:1005D000BE016F5F7F4F80EC9BE077DE64E070E2EE
:1005E00080EC9BE09BDE64E070E280EC9BE080DED0
:1005F00042E050E0BE016F5F7F4F80EC9BE065DE24
:1006000064E070E280EC9BE089DE64E070E280EC04
:100610009BE06EDE42E050E0BE016F5F7F4F80ECFA
:100620009BE053DE64E070E280EC9BE077DEA5CFD8
:10063000A1E21A2EAA1BBB1BFD010DC0AA1FBB1FE6
:10064000EE1FFF1FA217B307E407F50720F0A21B58
:10065000B30BE40BF50B661F771F881F991F1A94C5
:1006600069F760957095809590959B01AC01BD01EF
:08067000CF010895F894FFCFBB
:06067800782B2A2928005E
:00000001FF
