:10000000FDC000001FC100001DC100001BC1000099
:1000100019C1000017C1000015C1000013C1000084
:1000200011C100000FC100003BC400005CC400000F
:1000300009C1000042C2000005C1000003C1000068
:1000400001C10000FFC00000FDC00000FBC00000B7
:10005000F9C00000F7C00000F5C00000F3C00000C8
:1000600011C50000EFC00000EDC00000EBC00000B3
:10007000E9C00000E7C00000E5C00000E3C00000E8
:10008000E1C00000DFC00000DDC00000DBC00000F8
:10009000D9C00000D7C00000D5C00000D3C0000008
:1000A000D1C00000CFC00000CDC00000CBC0000018
:1000B000C9C00000C7C0000064C20000C3C0000087
:1000C000C1C00000BFC00000BDC00000BBC0000038
:1000D000B9C00000B7C00000B5C00000B3C0000048
:1000E000B1C00000AFC00000ADC00000ABC0000058
:1000F000A9C00000A7C00000A5C00000A3C0000068
:10010000A1C000009FC000009DC000009BC0000077
:1001100099C0000097C0000095C0000093C0000087
:1001200091C000008FC000008DC000008BC0000097
:10013000F6C1000087C0000085C0000083C0000039
:1001400081C000007FC000007DC000007BC00000B7
:1001500079C0000077C0000075C0000073C00000C7
:1001600071C000006FC000006DC000006BC00000D7
:1001700069C0000067C0000065C0000063C00000E7
:1001800061C000005FC000005DC000005BC00000F7
:1001900059C0000057C0000055C0000053C0000007
:1001A00051C000004FC000004DC000001CC2000044
:1001B00049C0000047C0000045C0000043C0000027
:1001C00041C000003FC000003DC000003BC0000037
:1001D00039C0000037C0000035C0000033C0000047
:1001E00031C000002FC000002DC000002BC0000057
:1001F00029C0000027C0000025C0000011241FBE38
:10020000CFEFCDBFDFE3DEBF00E00CBF18BE19BEED
:100210001ABE1BBE10E2A0E0B0E2E8E1F1E100E0AE
:100220000BBF02C007900D92A431B107D9F71BBED6
:1002300021E2A4E1B0E201C01D92AC34B207E1F7C3
:10024000ADD668C7DDCE0F931F93E0EDF0E090814F
:100250009068908340911420509115206091162051
:10026000709117204483052F162F272F33270583DE
:100270008B01222733270683472F552766277727A9
:10028000478310921420109215201092162010927D
:100290001720813019F4808180628083E0EDF0E0E6
:1002A0008081807F80838081816080831F910F9116
:1002B0000895CF92DF92EF92FF92E1EDF0E080811E
:1002C00081608083808180FDFDCF8091D00085FF9B
:1002D0002EC04091D4009091D5008091D6002091FD
:1002E000D70050E060E070E0722B592B682B20E2C1
:1002F00080E090E0DC01880F991FAA1FBB1F6A01F4
:100300007B0131E0C322DD24EE24FF248C0D9D1DF2
:10031000AE1DBF1D7695679557954795215059F7A6
:10032000BC01CD01609570958095909508C0609155
:10033000D4008091D50070E0782B80E090E0E0ED73
:10034000F0E02081207F208320812083FF90EF90A8
:10035000DF90CF9008950F931F93CF93DF93EC011D
:100360008B01842F70DF0115110551F0BE01600F64
:10037000711FE3EDF0E089918083C617D707D9F7A5
:1003800098DFDF91CF911F910F910895CF93DF9365
:10039000E0911820F0911920848183FF08C08860C3
:1003A000848383E0838386EF8093222083C0982F09
:1003B000947131F083E083838FEF809322207AC0A1
:1003C00086FF43C0C8E1D0E2AA81BB818C819D81B8
:1003D00014962D913C911597821793076CF49C010C
:1003E0002F5F3F4F20931C2030931D20A80FB91F73
:1003F00011968C9187835EC080911E2090911F2062
:1004000018962D913C91199782179307C8F4209163
:100410002020222321F08681816086834BC016969E
:100420002D913C911797AC014F5F5F4F40931E2079
:1004300050931F20D901A80FB91F8C9187833AC010
:1004400083E083831092222035C0882384F5A8E1BD
:10045000B0E21296CD91DC91139716968D919C91F6
:1004600017972885398582179307D8F46E817F8185
:100470009C012F5F3F4F20931E2030931F20478108
:10048000DB01A80FB91F4C93888599852817390778
:1004900018F482E083830EC087E0838310922220C9
:1004A00009C083E0838389EF8093222003C08BEF10
:1004B00080932220DF91CF9108951F920F920FB663
:1004C0000F92112408B60F9218BE09B60F9219BEEA
:1004D0000BB60F921BBE2F933F934F935F936F9377
:1004E0007F938F939F93AF93BF93EF93FF934EDFD1
:1004F000FF91EF91BF91AF919F918F917F916F91FC
:100500005F914F913F912F910F900BBE0F9009BEBD
:100510000F9008BE0F900FBE0F901F9018951F925E
:100520000F920FB60F92112408B60F9218BE09B69B
:100530000F9219BE0BB60F921BBE2F933F934F9392
:100540005F936F937F938F939F93AF93BF93EF933B
:10055000FF931CDFFF91EF91BF91AF919F918F911E
:100560007F916F915F914F913F912F910F900BBEB3
:100570000F9009BE0F9008BE0F900FBE0F901F90F6
:1005800018951F920F920FB60F92112408B60F9272
:1005900018BE09B60F9219BE0BB60F921BBE2F9351
:1005A0003F934F935F936F937F938F939F93AF93FB
:1005B000BF93EF93FF93EADEFF91EF91BF91AF916D
:1005C0009F918F917F916F915F914F913F912F916B
:1005D0000F900BBE0F9009BE0F9008BE0F900FBE7C
:1005E0000F901F9018951F920F920FB60F92112423
:1005F00008B60F9218BE09B60F9219BE0BB60F922D
:100600001BBE2F933F934F935F936F937F938F9373
:100610009F93AF93BF93EF93FF93B8DEFF91EF915A
:10062000BF91AF919F918F917F916F915F914F910A
:100630003F912F910F900BBE0F9009BE0F9008BEF7
:100640000F900FBE0F901F901895FC01DB011496C0
:100650008C91858388EB818381E08483E8E1F0E2FB
:1006600011861286E0EAF0E08281826082837894CB
:1006700080E00895CF93DF931F92CDB7DEB7DC0102
:10068000892B09F44BC06115710509F449C0FB01C0
:10069000928580912120882319F09923F1F342C09B
:1006A0008FB78983F8948981E8E1F0E291E091873E
:1006B00090E892878FBFA083B18362837383148293
:1006C0001582168217824087FB018081880F248162
:1006D0003581232B11F4411103C016968C9303C06E
:1006E000816016968C93E8E1F0E282858038E9F328
:1006F000E0911820F091192084818370813049F0B5
:10070000A8E1B0E2ED91FC91119784818370813072
:10071000C9F7E8E1F0E28285118605C088EF03C0E1
:1007200088EF01C086EF0F90DF91CF910895CF93AE
:10073000DF9300D0CDB7DEB78FEF8093700080934A
:100740007100809372008093730080937400809393
:100750007500809376008FB78A83F8949A81E0E5DC
:10076000F0E08081826080839FBF818181FFFDCF27
:1007700061E080E490E03BD18FB78B83F8949B815C
:10078000E0E5F0E080818E7F80839FBF82E08283FE
:100790008FB78983F89499818081886080839FBF17
:1007A000818183FFFDCF8BE0809343002396CDBFF3
:1007B000DEBFDF91CF910895CF93DF931F92CDB726
:1007C000DEB79FB79983F8949981E82FF0E0E0595C
:1007D000FF4F60958081682360839FBF0F90DF91FA
:1007E000CF9108950F931F93CF93DF931F92CDB7AF
:1007F000DEB7E0E0F4E0818180FDFDCF8FB7898333
:10080000F894298140913D2050913E208091080428
:1008100090910904009731F43091030430FF02C035
:100820004F5F5F4F2FBF60E070E0BA01552744274C
:10083000A0E0B0E08A019B01082B192B2A2B3B2B4F
:10084000C901B8010F90DF91CF911F910F910895C9
:10085000CF93DF931F92CDB7DEB764E080E0ACDFCB
:10086000E0E0F4E08FEF9FEF828793871086118698
:1008700080913A208F3F09F4FFCF8FB78983F89496
:100880009981E7E3F0E283818F5F83839FBFE0E09C
:10089000F4E081E0828380830F90DF91CF9108950F
:1008A0001F920F920FB60F92112408B60F9218BE26
:1008B0000BB60F921BBE8F939F93EF93FF93EDE3C5
:1008C000F0E280819181019680839183FF91EF9185
:1008D0009F918F910F900BBE0F9008BE0F900FBE8F
:1008E0000F901F9018951F920F920FB60F92112420
:1008F00008B60F9218BE09B60F9219BE0BB60F922A
:100900001BBECF92DF92EF92FF920F931F932F9314
:100910003F934F935F936F937F938F939F93AF9387
:10092000BF93EF93FF93EDE3F0E280819181228109
:10093000338182179307F0F121E020930204E091C4
:100940004320F09144203097A9F160910804709100
:100950000904A0E0B0E0DC0199278827AB0160E042
:1009600070E08C019D01042B152B262B372BC90120
:10097000B801ADE3B0E212960D911C91139720E0FF
:1009800030E09801112700271496CD90DC90159740
:10099000E12CF12C0C291D292E293F2906171707B8
:1009A0002807390730F0C901B8016F5F7F4F8F4FBB
:1009B0009F4F1995FF91EF91BF91AF919F918F91AB
:1009C0007F916F915F914F913F912F911F910F9167
:1009D000FF90EF90DF90CF900F900BBE0F9009BE6D
:1009E0000F9008BE0F900FBE0F901F9018951BBE62
:1009F000FC0128ED24BF60830895FC01E858FF4FF7
:100A00002081DC01A20FB11D6C9380818F5F8083F8
:100A1000908189E8989F812D1124829586958695ED
:100A2000837028E7829F9019112490830895FC0118
:100A3000E758FF4F2081DC01A20FB11D8C919081FE
:100A40009F5F9083208199E8299F912D1124929591
:100A500096959695937038E7939F201911242083DB
:100A60000895FC01E858FF4F20813196808130E0E5
:100A7000281B3109C901992324F488279927821B4F
:100A8000930B08951F920F920FB60F92112408B680
:100A90000F9218BE09B60F9219BE0BB60F921BBE6D
:100AA0002F933F934F935F936F937F938F939F9376
:100AB000AF93BF93EF93FF936091C30885E490E2F7
:100AC0009CDF84EC90E2CDDF882329F084EC90E277
:100AD000AEDF8093C30881E080933420FF91EF91D3
:100AE000BF91AF919F918F917F916F915F914F9146
:100AF0003F912F910F900BBE0F9009BE0F9008BE33
:100B00000F900FBE0F901F90189568E083E054DEA1
:100B100080E480934006E0ECF8E0808383E081830A
:100B200084E08093A2008AE7E5E4F0E2DF01982FF9
:100B30001D929A95E9F7E4ECF0E2DF011D928A95A7
:100B4000E9F708959F92AF92BF92CF92DF92EF9212
:100B5000FF920F931F93CF93DF930F2EF5E0BF2EDD
:100B6000F02DCC24C3940F2EFCE0AF2EF02D0F2ED1
:100B7000FEE0DF2EF02DC5E0D0E00FEB10E20F2EEF
:100B8000F0ECEF2EF8E0FF2EF02D0F2EFAEA9F2E5C
:100B9000F02D9DC085E490E24ADF80932E20809165
:100BA0002E208A3A81F4B0922D20109228201092A3
:100BB0002720109226201092242010922520109297
:100BC0002320C092332080912D208823B1F1909171
:100BD0002E20FE01E81BF109E154FF4D9083815066
:100BE00080932D20811171C0F801848190E0982FAD
:100BF00088272381822B80932B2090932C2040E008
:100C000063E070E0C801A7DB6093292070932A207D
:100C100020912B2030912C202617370749F4F7011B
:100C20009382692D84EC90E2E8DEC09228204DC0CA
:100C300060EF84EC90E2E1DE48C0809128208823B8
:100C400009F443C0E8E0F0E2AEE3B1E28A2D01909E
:100C50000D928A95E1F7EEE3F1E2809135208487E9
:100C6000809136208587D0922720D092262010921E
:100C7000282025C0E0912620F0E0E81BF109E25C85
:100C8000FE4D608184EC90E2B8DE80912720815097
:100C900080932720811113C06091262070E040E0EE
:100CA0008EE391E258DB609324207093252084EC3E
:100CB00090E2A3DE6091252084EC90E29EDE80919C
:100CC00027208111D7CF109233201092342085E451
:100CD00090E2C7DE81115ECFDF91CF911F910F911E
:100CE000FF90EF90DF90CF90BF90AF909F900895CE
:100CF000CF93DF93FC01709620E030E0C62FD0E068
:100D0000DE01022E02C0B595A7950A94E2F7A0FD78
:100D100050832F5F3F4F31962830310589F740FFD0
:100D20000AC041FF03C0FC01658302C0FC01668369
:100D3000FC01618302C0FC016283DF91CF910895C1
:100D400043E050E068E080EC97E0D2DF40E058E11B
:100D500064E080EC97E0CCCF08954F925F926F9261
:100D60007F928F929F92AF92BF92CF92DF92EF923B
:100D7000FF920F931F93CF93DF93CDB7DEB7C2558A
:100D8000D109CDBFDEBF0F2EF9E07F2EF02D8E01F1
:100D90000F5F1F4FD801E72D1D92EA95E9F70F2E3F
:100DA000F0EA8F2EF6E89F2EAA24A394B12CF02D02
:100DB00089829A82AB82BC820F2EF8E46F2EF02DCE
:100DC00069860F2EFBE9CF2ED12CE12CF12CF02DD2
:100DD000CD82DE82EF82F88660E486E0EDDCB80149
:100DE00080EB94E032DC075F1F4FD801E72D1D92A6
:100DF000EA95E9F78A869B86AC86BD860F2EF9E4D4
:100E00005F2EF02D5A8ACE86DF86E88AF98A60E462
:100E100086E0D2DCB80180EB94E017DC075F1F4F5F
:100E2000D801E72D1D92EA95E9F78B8A9C8AAD8A55
:100E3000BE8A0F2EFAE44F2EF02D4B8ECF8AD88E1D
:100E4000E98EFA8E60E486E0B7DCB80180EB94E0CE
:100E5000FCDB075F1F4FD8011D927A94E9F78C8E57
:100E60009D8EAE8EBF8E0F2EFBE4BF2EF02DBCA24A
:100E7000C8A2D9A2EAA2FBA260E486E09DDCB80188
:100E800080EB94E0E2DB82E48DA383EE8EA3055F2A
:100E90001F4F0F2EFBE0FF2EF02DF8016F2D11924A
:100EA0006A95E9F771E078A741E050E04BA75CA7AD
:100EB0006FA29E012B5D3F4F2DA73EA782E090E0E1
:100EC0008FA798ABDE01D296FD016F2D11926A9526
:100ED000E9F77BAB4EAB5FAB5AAA28AF39AF8AAF0D
:100EE0009BAF1B96FD016F2D11926A95E9F77EAFBE
:100EF00023964EAF5FAF23974DAE25962EAF3FAFF3
:100F0000259727968EAF9FAF2797FE01E85BFF4F8F
:100F1000DF011D92FA94E9F7718344835583B0820F
:100F2000268337838087918740E0B80180EB94E087
:100F3000A1DB11E0811101C010E040E0BE016E5C58
:100F40007F4F80EB94E096DB8111126040E0BE01A0
:100F5000635C7F4F80EB94E08DDB8111146040E097
:100F6000BE01685B7F4F80EB94E084DB81111860E9
:100F7000812FCE5ADF4FCDBFDEBFDF91CF911F91C2
:100F80000F91FF90EF90DF90CF90BF90AF909F9028
:100F90008F907F906F905F904F900895CF93DF93E5
:100FA000CDB7DEB72D97CDBFDEBFCADEC0DB50DCCC
:100FB000ACDDD3DE80933520789481E080933620B9
:100FC0000F2EFBE06F2EF02D8E010F5F1F4F882438
:100FD0008394912C0F2EF8E47F2EF02D5E018CE08F
:100FE000A80EB11C6894CC24C1F8D12C0F2EF8E0C7
:100FF000EF2EF0E2FF2EF02D0F2EF9E45F2EF02DF4
:101000000F2EFAE44F2EF02D0F2EFBE43F2EF02D85
:1010100099DD809133208111FBCFF801862D11924B
:101020008A95E9F78D829E827982AF82B886C986D9
:10103000DA86D8DB60932F207093302080933120A4
:101040009093322041E0B80180EB94E013DB8111F2
:1010500005C08D85F70180838C8581838091342044
:101060008111D6CF598241E0B80180EB94E002DBD8
:10107000811105C08D85F70182838C8583838091E2
:1010800034208111C5CF498241E0B80180EB94E062
:10109000F1DA811105C08D85F70184838C85858304
:1010A000809134208111B4CF398241E0B80180EBC6
:1010B00094E0E0DA811105C08D85F70186838C8587
:1010C0008783809134208111A3CF8CDB609304202F
:1010D00070930520809306209093072020912F2065
:1010E000309130204091312050913220DC01CB01F1
:1010F000821B930BA40BB50B8093002090930120CF
:10110000A0930220B0930320F70180879187A287E4
:08111000B3877ECFF894FFCFF6
:1011180002000000010000000102030405060000AF
:0411280000000000C3
:00000001FF
