:10000000FDC000001FC100001DC100001BC1000099
:1000100019C1000017C1000015C1000013C1000084
:1000200011C100000FC1000055C4000076C40000DB
:1000300009C1000062C2000005C1000003C1000048
:1000400001C10000FFC00000FDC00000FBC00000B7
:10005000F9C00000F7C00000F5C00000F3C00000C8
:1000600012C50000EFC00000EDC00000EBC00000B2
:10007000E9C00000E7C00000E5C00000E3C00000E8
:10008000E1C00000DFC00000DDC00000DBC00000F8
:10009000D9C00000D7C00000D5C00000D3C0000008
:1000A000D1C00000CFC00000CDC00000CBC0000018
:1000B000C9C00000C7C0000084C20000C3C0000067
:1000C000C1C00000BFC00000BDC00000BBC0000038
:1000D000B9C00000B7C00000B5C00000B3C0000048
:1000E000B1C00000AFC00000ADC00000ABC0000058
:1000F000A9C00000A7C00000A5C00000A3C0000068
:10010000A1C000009FC000009DC000009BC0000077
:1001100099C0000097C0000095C0000093C0000087
:1001200091C000008FC000008DC000008BC0000097
:1001300016C2000087C0000085C0000083C0000018
:1001400081C000007FC000007DC000007BC00000B7
:1001500079C0000077C0000075C0000073C00000C7
:1001600071C000006FC000006DC000006BC00000D7
:1001700069C0000067C0000065C0000063C00000E7
:1001800061C000005FC000005DC000005BC00000F7
:1001900059C0000057C0000055C0000053C0000007
:1001A00051C000004FC000004DC000003CC2000024
:1001B00049C0000047C0000045C0000043C0000027
:1001C00041C000003FC000003DC000003BC0000037
:1001D00039C0000037C0000035C0000033C0000047
:1001E00031C000002FC000002DC000002BC0000057
:1001F00029C0000027C0000025C0000011241FBE38
:10020000CFEFCDBFDFE3DEBF00E00CBF18BE19BEED
:100210001ABE1BBE10E2A0E0B0E2E8E7F0E100E0A9
:100220000BBF02C007900D92A431B107D9F71BBED6
:1002300021E2A4E1B0E201C01D92AC34B207E1F7C3
:100240005BD618C7DDCEE0EDF0E08081806880836A
:100250008091142090911520A0911620B091172024
:100260008483492F5A2F6B2F77274583AD0166274B
:10027000772746838B2F9927AA27BB27878310923E
:100280001420109215201092162010921720089515
:10029000CF92DF92EF92FF920F931F938091D10044
:1002A00080FDFCCF8091D00085FF32C09091D400BA
:1002B0004091D5008091D6000091D70010E020E059
:1002C00030E0302F222711270027142B092B282B51
:1002D00040E280E090E0DC01880F991FAA1FBB1F5D
:1002E0006801790151E0C522DD24EE24FF248C0D44
:1002F0009D1DAE1DBF1D369527951795079541503D
:1003000059F7BC01CD01609570958095909508C016
:100310006091D4008091D50070E0782B80E090E06F
:100320001F910F91FF90EF90DF90CF900895E0ED37
:10033000F0E09081907F90839081892B8083089555
:10034000CF93DF931F92CDB7DEB789837CDF89819E
:10035000813029F48091D00080628093D00081E0C8
:100360000F90DF91CF91E3CFCF92DF92EF92FF9288
:10037000E1EDF0E08081816080838ADF6B017C01A8
:1003800080E0D5DFC701B601FF90EF90DF90CF90FE
:100390000895EF92FF921F93CF93DF931F92CDB7F3
:1003A000DEB7182F7B01842F9983CADFE12F998153
:1003B000F92F97012E0F3F1FE217F30721F08191CC
:1003C0008093D300F9CF0F90DF91CF911F91FF90D1
:1003D000EF90CACFCF93DF93E0911820F0911920CE
:1003E000848183FF06C08860848383E0838386EFF3
:1003F0007FC0982F947121F083E083838FEF78C0C2
:1004000086FF41C0A0911A20B0911B2080911C2032
:1004100090911D2014962D913C911597821793076A
:1004200064F49C012F5F3F4F20931C2030931D20CC
:10043000A80FB91F11968C9122C080911E20909117
:100440001F2018962D913C91199782179307C8F495
:1004500020912020222321F08681816086834AC05A
:1004600016962D913C911797AC014F5F5F4F4093CB
:100470001E2050931F20D901A80FB91F8C9187838C
:1004800039C083E02CC087FF32C0A0911A20B09100
:100490001B2080911E2090911F2018962D913C9139
:1004A000199782179307F8F416966D917C91179718
:1004B0009C012F5F3F4F20931E2030931F204781C8
:1004C000EB01C80FD91F488318968D919C911997FD
:1004D0002817390718F482E083830CC087E08383F0
:1004E0001092222007C083E0838389EF01C08BEF45
:1004F00080932220DF91CF9108951F920F920FB623
:100500000F92112408B60F9218BE09B60F9219BEA9
:100510000BB60F921BBE2F933F934F935F936F9336
:100520007F938F939F93AF93BF93EF93FF9352DF8C
:10053000FF91EF91BF91AF919F918F917F916F91BB
:100540005F914F913F912F910F900BBE0F9009BE7D
:100550000F9008BE0F900FBE0F901F9018951F921E
:100560000F920FB60F92112408B60F9218BE09B65B
:100570000F9219BE0BB60F921BBE2F933F934F9352
:100580005F936F937F938F939F93AF93BF93EF93FB
:10059000FF9320DFFF91EF91BF91AF919F918F91DA
:1005A0007F916F915F914F913F912F910F900BBE73
:1005B0000F9009BE0F9008BE0F900FBE0F901F90B6
:1005C00018951F920F920FB60F92112408B60F9232
:1005D00018BE09B60F9219BE0BB60F921BBE2F9311
:1005E0003F934F935F936F937F938F939F93AF93BB
:1005F000BF93EF93FF93EEDEFF91EF91BF91AF9129
:100600009F918F917F916F915F914F913F912F912A
:100610000F900BBE0F9009BE0F9008BE0F900FBE3B
:100620000F901F9018951F920F920FB60F921124E2
:1006300008B60F9218BE09B60F9219BE0BB60F92EC
:100640001BBE2F933F934F935F936F937F938F9333
:100650009F93AF93BF93EF93FF93BCDEFF91EF9116
:10066000BF91AF919F918F917F916F915F914F91CA
:100670003F912F910F900BBE0F9009BE0F9008BEB7
:100680000F900FBE0F901F901895FC01DB01149680
:100690008C91858388EB818381E08483E8E1F0E2BB
:1006A00011861286E0EAF0E082818260828378948B
:1006B00080E00895CF93DF931F92CDB7DEB7DC01C2
:1006C000FB01892B09F444C0309709F441C08285AD
:1006D00090912120992319F081113CC0FFCF8FB751
:1006E0008983F894898191E09093212090E89093F8
:1006F00022208FBFA0931820B093192060931A2056
:1007000070931B2010921C2010921D2010921E200E
:1007100010921F20409320209081990F24813581D1
:10072000232B11F44111916016969C938091222005
:100730008038E1F3E0911820F091192084818370D2
:10074000813009F0F7CF809122201092212003C040
:1007500088EF01C086EF0F90DF91CF910895CF937E
:10076000DF931F92CDB7DEB78FB78983F894898165
:100770000F90DF91CF9108958FEF80937000809359
:100780007100809372008093730080937400809353
:10079000750080937600E3DF909150009260909313
:1007A00050008FBF8091510081FFFCCF61E080E459
:1007B00090E032D1D4DF909150009E7F9093500012
:1007C0008FBF82E080935200CADF90915000986002
:1007D000909350008FBF8091510083FFFCCF8BE03E
:1007E0008093430008951F93CF93DF931F92CDB75B
:1007F000DEB7182F6983B3DFE12FF0E0E059FF4F38
:10080000698160959081692360838FBF0F90DF912C
:10081000CF911F9108950F931F93CF93DF931F9252
:10082000CDB7DEB78091010480FDFCCF8FB78983FF
:10083000F894298180913D2090913E206091080498
:10084000709109046115710521F43091030430FDA4
:1008500001962FBFA0E0B0E0DC0199278827AB010B
:1008600060E070E08C019D01042B152B262B372BAB
:10087000C901B8010F90DF91CF911F910F91089599
:10088000CF93DF931F92CDB7DEB764E080E0ABDF9C
:100890008FEF9FEF80930A0490930B04109208044B
:1008A0001092090480913A208F3F09F4FFCF8FB74F
:1008B0008983F894998180913A208F5F80933A20C0
:1008C0009FBF81E080930204809300040F90DF912A
:1008D000CF9108951F920F920FB60F92112408B670
:1008E0000F9218BE0BB60F921BBE8F939F93EF9380
:1008F000FF93EDE3F0E28081918101968083918303
:10090000FF91EF919F918F910F900BBE0F9008BEBA
:100910000F900FBE0F901F9018951F920F920FB659
:100920000F92112408B60F9218BE09B60F9219BE85
:100930000BB60F921BBECF92DF92EF92FF920F93F6
:100940001F932F933F934F935F936F937F938F9357
:100950009F93AF93BF93EF93FF9340913D205091AE
:100960003E2000913F201091402040175107B8F1E0
:1009700081E080930204E0914320F091442030977D
:1009800071F1809108049091090460E070E0BA016F
:1009900055274427A0E0B0E06A017B01C82AD92A84
:1009A000EA2AFB2AC701B60120E030E098011127AE
:1009B0000027C0904120D0904220E12CF12C0C293E
:1009C0001D292E293F29061717072807390730F058
:1009D000C901B8016F5F7F4F8F4F9F4F1995FF91EE
:1009E000EF91BF91AF919F918F917F916F915F91A7
:1009F0004F913F912F911F910F91FF90EF90DF90BA
:100A0000CF900F900BBE0F9009BE0F9008BE0F90B5
:100A10000FBE0F901F9018951BBEFC0128ED24BF40
:100A200060830895FC01E858FF4F2081DC01A20F8C
:100A3000B11D6C9380818F5F8083808168E70ED3C6
:100A400090830895FC01E758FF4F2081DC01A20F3D
:100A5000B11D2C9190819F5F9083808168E7FED2C9
:100A60009083822F0895FC01E858FF4F90813196C2
:100A70002081892F90E0821B910997FF03C09195F7
:100A80008195910908951F920F920FB60F9211242C
:100A900008B60F9218BE09B60F9219BE0BB60F9288
:100AA0001BBE2F933F934F935F936F937F938F93CF
:100AB0009F93AF93BF93EF93FF936091C30885E437
:100AC00090E2B0DF84EC90E2CEDF882329F084EC62
:100AD00090E2B8DF8093C30881E080933420FF91D7
:100AE000EF91BF91AF919F918F917F916F915F91A6
:100AF0004F913F912F910F900BBE0F9009BE0F9019
:100B000008BE0F900FBE0F901F90189568E083E00D
:100B10006ADE80E480934006E0ECF8E0808383E0C6
:100B2000818384E08093A2008AE7E5E4F0E2DF01BC
:100B3000982F1D929A95E9F7E4ECF0E2DF011D92FF
:100B40008A95E9F70895DF92EF92FF920F931F9332
:100B5000CF93DF9335E0F32E11E04CE0E42E0EE06E
:100B6000C5E0D0E05AEAD52E85E490E27CDF882308
:100B700009F4A1C085E490E265DF80932E20809186
:100B80002E208A3A81F4F0922D2010922820109283
:100B900027201092262010922420109225201092B7
:100BA00023201093332080912D208823C1F1909130
:100BB0002E20FE01E81BF109E154FF4D9083815086
:100BC00080932D20811174C08091C32090E0982FD4
:100BD00088272091C220822B80932B2090932C2059
:100BE00040E063E070E08FEB90E2D3DB609329207C
:100BF00070932A2020912B2030912C202617370724
:100C000049F4D092C3086AEA84EC90E20BDF1093B7
:100C100028204EC060EF84EC90E204DF49C0809150
:100C20002820882309F444C0E8E0F0E2AEE3B1E212
:100C30008E2D01900D928A95E1F780913520809359
:100C40004A218091362080934B21009327200093E6
:100C500026201092282080912720882339F1E091C6
:100C60002620F0E0E81BF109E25CFE4D608184EC97
:100C700090E2D8DE80912720815080932720811137
:100C8000EACF6091262070E040E08EE391E281DBC4
:100C9000CB01609324209093252084EC90E2C2DE67
:100CA0006091252084EC90E2BDDED5CF10923320F8
:100CB0001092342059CFDF91CF911F910F91FF9067
:100CC000EF90DF900895FC0180E090E0262F30E067
:100CD000D901082E02C0B595A7950A94E2F7A0FFA6
:100CE00005C0DF01A80FB91F50965C9301968830AC
:100CF000910571F740FF07C041FF02C0658301C045
:100D00006683618308956283089543E050E068E05C
:100D100080EC97E0D8DF40E058E164E080EC97E0B9
:100D2000D2CFCF93DF93EC018BE990E0A0E0B0E06D
:100D30008C839D83AE83BF8360E486E054DDBE0177
:100D400080EB94E0A2DC082E000C990BDF91CF9190
:100D500008959F92AF92BF92CF92DF92EF92FF924F
:100D60000F931F93CF93DF93CDB7DEB7C255D10951
:100D7000CDBFDEBFFE01E85BFF4F19E0DF01F12EC2
:100D80001D92FA94E9F780EAC82E86E8D82EEE2460
:100D9000E394F12CC082D182E282F38298E4B92EEE
:100DA000B086CF01BEDFCE01CF96DC01E12F1D92D0
:100DB000EA95E9F7DC01CD92DD92ED92FC92139772
:100DC00029E4922E28969FAE2897ABDFCE01C696D7
:100DD000FC01212F11922A95E9F7CEAADFAAE8AEED
:100DE000F9AE0AE40EAF9DDFCE018D96DC011D92B7
:100DF0001A95E9F7CDA6DEA6EFA6F8AA1BE41DAB6F
:100E000090DFFE01EF5AFF4F82E4808383EE8183FF
:100E1000BE016E5D7F4F5BE0DB01F52E1D92FA9403
:100E2000E9F741E04BA321E030E02EA33FA3BAA2B3
:100E3000E8A7F9A782E090E08AA79BA75E01A7E157
:100E4000AA0EB11CD501F52E1D92FA94E9F7488F30
:100E50002B8F3C8F9F8AED8FFE8F8F8F98A36E0113
:100E6000ACE0CA0ED11CD601F52E1D92FA94E9F71A
:100E70004D87288B398B0C87EA8BFB8B8C8B9D8B5A
:100E8000DE0111967D011D925A95E9F74A832D8363
:100E90003E831983EF83F88789879A8740E080EB48
:100EA00094E008DC11E0811101C010E040E0B501E0
:100EB00080EB94E0FFDB8111126040E0B60180EB33
:100EC00094E0F8DB8111146040E0B70180EB94E01E
:100ED000F1DB81111860812FCE5ADF4FCDBFDEBF0D
:100EE000DF91CF911F910F91FF90EF90DF90CF9006
:100EF000BF90AF909F900895CF93DF93CDB7DEB7AB
:100F00002D97CDBFDEBF01DF37DCBADCFFDD21DF8F
:100F100080933520789481E0809336208BE0F82E02
:100F20008E010F5F1F4FCC24C394D12C28E4E22EF6
:100F30005E018CE0A80EB11C32E0832E912C49E4B6
:100F4000742E5AE4652E6BE4562EFDDD809133201D
:100F50008111FBCFF8018F2D11928A95E9F7CD828F
:100F6000DE82E982AF82B88689869A8654DC6093F5
:100F70002F2070933020809331209093322041E0D5
:100F8000B80180EB94E096DB811106C08D858093DB
:100F900008208C8580930920809134208111D5CF41
:100FA000798241E0B80180EB94E084DB811106C0D6
:100FB0008D8580930A208C8580930B20809134202E
:100FC0008111C3CF698241E0B80180EB94E072DB0C
:100FD000811106C08D8580930C208C8580930D2017
:100FE000809134208111B1CF598241E0B80180EB6A
:100FF00094E060DB811106C08D8580930E208C8586
:1010000080930F208091342081119FCF04DC609366
:101010000420709305208093062090930720209150
:101020002F20309130204091312050913220DC012E
:10103000CB01821B930BA40BB50B809300209093E4
:101040000120A0930220B09303208093102090935E
:101050001120A0931220B093132077CF991B79E031
:1010600004C0991F961708F0961B881F7A95C9F738
:0810700080950895F894FFCF6C
:101078000200000001000000010203040506000050
:041088000000000064
:00000001FF
